:020000040800F2
:2000000090E30020097B0008A9750008AB750008AD750008AF750008B175000800000000EF
:20002000000000000000000000000000B3750008B575000800000000B7750008B9750008F4
:20004000797B000871760008817B0008857B0008897B00088D7B0008917B0008957B000861
:20006000997B00089D7B0008A17B0008A57B0008A97B0008AD7B0008D9690008B57B00081A
:20008000B97B0008BD7B0008C17B0008C57B0008C97B0008CD7B0008D17B0008D57B000810
:2000A000D97B0008DD7B0008E17B0008E57B0008E97B0008ED7B0008F17B0008F57B0008F0
:2000C000F97B0008FD7B0008017C0008057C0008097C00080D7C0008117C0008157C0008CA
:2000E000197C00081D7C0008217C0008257C0008297C00082D7C0008317C0008357C0008A8
:20010000397C00083D7C0008417C0008457C0008497C00084D7C0008517C0008557C000887
:20012000597C00085D7C0008F5660008657C0008697C00086D7C0008717C0008757C0008E9
:20014000797C00087D7C0008817C00087B760008897C00088D7C00080D670008957C0008F0
:20016000997C00089D7C0008A17C0008A57C0008A97C0008AD7C0008B17C0008B57C000827
:20018000B97C0008BD7C000810B50400200000F034F810BD10B50400002C05D0200000F035
:2001A0003BF8200001F011FC10BD10B50400200000F032F810BD0100002089B2022903D3F4
:2001C00089B24908401CF8E7C0B2704710B5040020220021200001F00CFC43F6813020825E
:2001E0004FF4C040E08143F68130608243F6813020834FF4C040E08210BD10B50400DFF8F0
:20020000200B206010220021201D01F0F2FB200000F003F8200010BD7047002282760022DA
:200220000276002242760822C276FF2202770022C283002280F82020002280F82120002232
:20024000428400224262002282620022C2620022026300228286002282630022C2635FF078
:20026000FF3202645FF0FF324264002280F84920002280F8482000221100022906DA10EB83
:20028000C1025FF0FF335360491CF6E770470300C9B2022907D2C9B213EBC10082609868D0
:2002A0005861012000E000207047C9B210EBC10080687047F8B504000D001600EDB214EB65
:2002C000C5008268310020002368DB68984707004FF40070BFB2874203D1EDB214EBC50046
:2002E0004660380080B2F2BDF8B504000D00EDB214EBC5008268EDB214EBC5004168200008
:2003000023681B699847060000200700BFB2022F11D2EDB214EBC5004068BFB214EBC701FA
:200320004968884205D1BFB214EBC7005FF0FF3141607F1CEAE7300080B2F2BD2DE9F84347
:2003400004000D0016003100C9B22000FFF7ADFF8146B9F1000F05D1DFF8200C23210170FA
:2003600000201FE02900200000F00EFC80464FF40072FF21484601F03CFB00200700E08B38
:20038000BFB2874208D24A4618FA87F1200023681B6998477F1CF2E7F6B214EBC600C0F888
:2003A00004800120BDE8F28310B50400A06A421C00212000FFF77EFF4FF40071884201D248
:2003C00000201EE060690068DFF8381C884217D16069D0F8E401DFF8301C884210D16069E4
:2003E000D0F8FC01DFF8241C884209D16069216CC0F8EC11A06A421C0021200000F002F8DF
:20040000012010BD70B504000D001600EDB214EBC5004660EDB214EBC500826831002000FB
:2004200023681B69984770BD0200C9B2002901D1002016E0C9B20B290BD0C9B20C2908D001
:20044000C9B20E2905D0C9B2042902D0C9B2062901D1012005E0C9B2072901D1002000E09C
:20046000002070472DE9FC4104000D00002600A8DFF89C1B0CC90CC0083908380027042F69
:2004800050DA002600A830F817004019407900A931F8171049194978884200D2761E00A81F
:2004A00030F817004019807910F03F0000A931F817104919897811F03F01884200DA761E97
:2004C00000A830F817004019C0884FF6C071084000A931F81710491949884FF6C0721140E2
:2004E000884200DA761E00A830F81700401990F804804146C9B22000FFF796FF002804D0CF
:20050000761D2878EB2801D103E009E02878E92801D1F61E00E0761C012E01DB012002E0E0
:200520007F1CACE70020BDE8F681F8B5040000212000FFF7BAFE07002000FFF76EFE002FF9
:2005400001D1002065E0002200212000FFF7B2FE4FF40071884201D200205AE097F8FE0122
:20056000552803D197F8FF01AA2801D0002050E039002000FFF776FF002809D10020A062C0
:20058000F88A002801D1012000E00020607617E04FF4DF700500B5F5FF7F11DAE81980685E
:2005A000A062E81900790600A06A002806D03100C9B22000FFF738FF002801D11035EAE7A8
:2005C000A06A002811D0A26A00212000FFF772FE4FF40071884201D200201AE0F88A002840
:2005E00001D1012000E000206076200000F012F8002801D100200CE0200000F065F800287D
:2006000001D1002005E0200000F09CF80120A0760120F2BD2DE9F041040000212000FFF7D6
:2006200044FE8046607E002804D00720E0767F20207703E00820E076FF20207798F80D0071
:20064000E083E08BFFF7B7FD84F8200094F82000093084F82100B8F816000500607E002833
:2006600002D1ADB2002D02D1B8F82400050098F810000700B8F80E000600A06A10FA86F07A
:2006800060626584FFB2022F05D3606AADB210EB4500E06203E0606A10FA85F0E062D8F80C
:2006A0002000A063A06B002802D1D8F81300A063A06BE16A401AE063E06B94F82010C84029
:2006C000E0630120BDE8F0812DE9F041040000212000FFF7EAFD8046607E00281BD0D8F8B0
:2006E0002C0005002900200000F04EFA20630020A086102094F92010884007002E00310064
:20070000200000F04AFA0500A08E3818A086701C8542F3D013E0B8F81100A086E06A20631F
:20072000E06AA18E89B2090910FA81F0E062E06BA18E94F82020121D1141401AE0630120B1
:20074000BDE8F08110B50400607E002825D0A06A421C00212000FFF7ADFD4FF400718842F8
:2007600001D200201AE060690068DFF89818884213D16069D0F8E401DFF88C1888420CD18E
:200780006069D0F8FC01DFF8A818884205D16069D0F8EC012064012000E0002010BD407EE6
:2007A0007047427E002A0BD0022906D3C06B09010909884201D3012000E00020C0B209E058
:2007C000022905D34FF6F070814201D2012000E00020C0B27047010000200200D2B2082AB8
:2007E0000FD2D2B2DFF84C0850F83200884206D3D2B2DFF8400810EBC200007902E0521C23
:20080000ECE70020704710B40200B2F12003C9B20C002402A41CE018401EB0FBF4F080B21E
:2008200010BC70472DE9F04104000D0016001F002800FFF7D0FF30803188C9B22800FFF7B9
:20084000E2FF38804FF400720021606901F0D1F800208046A06A398810FA81F0398810FAAF
:2008600081F04030804507D2424600212000FFF7C9FD18F10108EDE7BDE8F08138B5040087
:200880000D004FF400720021606901F0B2F86069332101706069C021417060698E218170BF
:2008A0006069552180F8FE116069AA2180F8FF116069802180F8BE116069062180F8C2116A
:2008C0006069A16AC0F8C6116069C0F8CA51002200212000FFF796FD4FF40071884201D1DD
:2008E000012000E00020C0B232BD70B582B004000D000DF1020300AA2900200026683668EC
:20090000B047BDF80000002801D1002099E0A06A002803D029002000FFF7B0FF4FF40072F0
:200920000021606901F065F86069EB21017060693C21417060699021817008226069C11C27
:20094000DFF8F40601F046F80522606910F13601DFF8E80601F03EF860694FF40071A0F86E
:200960000B10606910218173606902210174BDF80000812808D36069FF21417360694FF42B
:200980008051A0F8111008E06069BDF80010417360694FF40071A0F8111060690021A0F8EB
:2009A00013106069F82141756069BDF80210C18260693F2101766069FF2181766069A16A55
:2009C000C161606905626069802180F824106069292180F826106069DFF86416C0F82710E5
:2009E0006069002180F82B106069022180F82C106069DFF85016C0F8421060694AF655212B
:200A0000A0F8FE11B5F5803F05D26069A0F813506069002101622000FFF7FCFDA06A821D26
:200A200000212000FFF7EEFCA26A00212000FFF7E9FC4FF40071884201D1012000E00020FC
:200A4000C0B276BDF0B589B004000D0016002000FFF7E3FBA66229002000FFF746FF002844
:200A600001D1002073E02000FFF72EFE002801D100206CE0E06A281A94F82010C840070032
:200A8000781E6064032020646069DFF8781501606069DFF87415C0F8E4116069DFF86C15D0
:200AA000C0F8FC116069616CC0F8E8116069216CC0F8EC11A06AC21D00212000FFF7A2FC61
:200AC000A06A421C00212000FFF79CFC4FF40071884201D000203AE04FF4007200216069B7
:200AE00000F087FF60697FF00701016060694FF6FF718180626A00212000FFF783FC606A14
:200B0000618C10FA81F200212000FFF77BFC00A8FFF75CFB08208DF80B00082200A9DFF866
:200B2000280500F057FF2022616900A800F052FF226B00212000FFF765FC4FF400718842AA
:200B400001D0002003E0002084F84900012009B0F0BD006B7047012190F9210011FA00F06C
:200B60007047C08B704710B4020092F8210031FA00F0012392F92140A3405B1E194200D099
:200B8000401C80B210BC704702008B1E180092F820309840D36A181870472DE9F843040056
:200BA000884600212000FFF780FB070041462000FFF7F7FD002801D1404629E0606A814603
:200BC000E07E38FA00F010EB09094A4600212000FFF770FB4FF40071884201D2002017E0EE
:200BE000607E002807D018F07F000500AD00ADB2E859060006E018F0FF0005006D00ADB27B
:200C0000E85B0600B04502D17FF0704000E03000BDE8F2832DE9F44F82B004000D001E00C0
:200C20005FF00009AA465FF0000BE07E35FA00F00700E07E17FA00F00090606AC719207F56
:200C4000284080463A0000212000FFF733FB4FF40071884201D2002060E0207F80B21FFA2C
:200C600088F8404532D3BDF808001FFA8BFB83452CD2009810FA88F08146E06B814504D37F
:200C8000BE4810210170002048E0414689B2200000F016FF002816D11FFA8BFBBBF1000F14
:200CA00004D1002E0CD0C6F8009009E0CA4507D04A46207F10EA0A0189B2200000F00FFFAB
:200CC0001BF1010BCA4618F10108C6E71FFA8BFBBBF1010F21D3BAF1000F1ED00C9800286A
:200CE00002D00C98C0F800A07FF07042207F10EA0A0189B2200000F0F2FE00212000FFF7EF
:200D0000F3FA4FF40071884204D29C4804210170002003E0584680B200E00020BDE8FE8F13
:200D2000B07900082DE9F64F83B004000025039E039F00200190002002905FF000085FF07F
:200D4000000ABDF810B0002E07D1216C2000FFF728FD002801D0206C060088480021017059
:200D60001FFA8BFBBBF1010F72D302A8009001AB5A4692B231002000FFF74CFF8046E07E53
:200D800036FA00F0814619F10100E17E884006001FFA88F8B8F1000F05D00198002802D07B
:200DA000029800281ED1754800780028D8D073480078102815D15FFA8AFABAF1000F10D1B4
:200DC000E07E36FA00F0E16BE27ED140491E884207D3022006006948002101700120824679
:200DE000BEE735E0002D01D101980500002F2AD0E07E37FA00F08146606A10EB09094A46C6
:200E000000212000FFF756FA4FF40071884203D25A48012101701BE00198B84213D0019AB7
:200E2000207F10EA070189B2200000F058FE00212000FFF759FA4FF40071884203D24F48FC
:200E40000421017004E0BBEB080B0298070087E71FFA8BFBBBF1010F03D2484800780028F0
:200E600008D02900200000F034F844481021017000202BE002982064606CBDF81010401AC3
:200E8000606494F84900401C84F8490094F84900FB2803D3200021688969884794F848008C
:200EA000002812D02E0031002000FFF77AFC00280BD001223100200023685B699847310067
:200EC0002000FFF76AFE0600EDE7280005B0BDE8F08F2DE9F04704000D0000260027A84620
:200EE0005FF0010A25480021017041462000FFF758FC002832D0E07E38FA00F00600606A2E
:200F00008619BE4219D0002F03D000212000FFF7EBF9320000212000FFF7CCF937005FFA6E
:200F20008AFABAF1000F06D014480078002802D15FF0010A01E05FF0000A207F10EA080099
:200F40008146494689B2200000F0BAFD80460022494689B2200000F0C2FDC6E7002F03D009
:200F600000212000FFF7C0F9606C50FA8AF060645FFA8AFA504680B2BDE8F0878343002086
:200F80002DE9F04704000D0016001F0029002000FFF707FC002805D1DFF8A4072121017049
:200FA00000202CE03100C9B22000FFF77EF98246BAF1000F05D1DFF888072221017000203A
:200FC0001DE04FF400723900C9B2504600F011FD29002000FFF7D8FD814600208046E08BEB
:200FE0001FFA88F8804509D219FA88F23100C9B22000FFF707FA18F10108F0E70120BDE8B9
:20100000F08700005252614172724161000055AA387B000810B50400442000F06DFD002824
:2010200004D00022210000F011F800E0002010BD000055AA00000020187B0008307B000866
:20104000785634122951D6AE407B000870B504000D0016002560002060613100200000F0C8
:201060004CF8200070BD10B504006069002804D0606900F053FD00206061200010BDF8B5CD
:20108000040000206062206A05002068FFF763FD07007F090020207629002068FFF781FB95
:2010A00000280CD0207E401C2076606A10FA87F0606229002068FFF770FD0500ECE7207E05
:2010C000800000F02DFD6061206A05000020060029002068FFF765FB00280DD0F6B2606983
:2010E00040F8265029002068FFF757FD0500761C207EF6B28642EBD3F1BD38B504000D0038
:201100000020E06125620020606200202076002020716069002802D0606900F0FFFC002007
:201120006061002D06D12068FFF739FB002801D002200500022D14D3256229002068FFF7D4
:2011400023FDE0612000FFF79AFF022D06D12068FFF725FB002801D0012000E000206076EB
:201160000AE0012060762068FFF7F3FCE061002020622068808E6062607E002802D00120ED
:20118000A06201E00220A062200000F0CBFC31BDF8B504000D002900200000F0C6FC0600C4
:2011A0003100200000F0C5FC06002068006B864201D2002007E02900200000F0E3FC070073
:2011C000780150EA4620F2BD2DE9F84F04000D0016001F00A06A854202D3606A854201D399
:2011E000002052E000AA2900200000F0D0FC82462900200000F099FC8346FFB2002F25D0BA
:201200009DF800008046B8F1100F3DDA1AEB4810814699F80000002803D10120A07600208C
:2012200033E04946200000F0D7FC00280BD020223100484600F0CEFB4246D2B259462000A1
:2012400000F033FD21E018F10108DCE79DF800008046B8F1000F17D41AEB481081464946E7
:20126000200000F0B9FC00280BD020223100484600F0B0FB4246D2B25946200000F015FD3D
:2012800003E0B8F10108E4E70020BDE8F28F38B504000D00002020710120A0762A00A06A8E
:2012A000411E200000F001F832BD2DE9F84304000D001600A06A401E854202D2A06A401EF4
:2012C00005000020A07601233200691C2000FFF77BFF0700002F02D1A07E002801D0380010
:2012E00022E0691C200000F020FC804618F101008146606AB9EB101F15D20022494620004F
:2013000000F0D3FC0123320001002000FFF75CFF0700002F02D1A07E002801D0380003E00B
:2013200019F10109E5E70020BDE8F2832DE9F04104000D0016001F00DDF8188000202071E8
:20134000002D0FD0207950F001002071A673A07B092801D30820A073A27B92B2A11D28005B
:2013600000F038FB002F09D0207950F002002071032214F10F01380000F02CFB4246A06ABB
:20138000411E2000FFF791FFBDE8F0812DE9F04190B004000D0016001F000822202101A851
:2013A00000F027FBF6B2092E01D308200600F6B2320092B201A9280000F00CFB03A8211D6A
:2013C0000E2200F08FFC07A800903B00082201A92000FFF7ABFF8046201D03A90E2200F085
:2013E00081FCB8F1000F01D0012000E00020C0B210B0BDE8F0812DE9F84F04000D001600FA
:201400005FF0010B00AA5946200000F0C0FB80465946200000F089FB82469DF80000070000
:20142000FFB2102F28D2FFB218EB4710814699F80000002806D0F6B2002E19D099F8000011
:20144000E52815D120224946280000F0C3FA01212068FEF749FF4FF40071884206D13A007D
:20146000D2B25146200000F020FC09E0002007E01BF1010B7F1CD3E7606A8345C2D3002081
:20148000BDE8F28F2DE9F84304000D00002229002000FFF7B0FF8146B9F1000F01D04846D5
:2014A00052E0200000F03EFB012229002000FFF7A2FF8146B9F1000F01D0484644E06069E2
:2014C000002840D0207E01283DD3207E616911EB800050F8040C0600012231002068FFF7E9
:2014E00021FC06000023012231002068FFF748FD002E28D060698046207E401C800000F070
:201500000FFB6061207E80B2820092B26169404600F060FA207E616941F82060207E401CB5
:201520002076404600F0FAFA2068FFF71AFB0700606ABFB210EB0710606200222900200097
:20154000FFF759FF81464846BDE8F283F8B504000D0000AA2900200000F019FB0700002FE3
:2015600013D09DF8000017EB40100600E520307001212068FEF7B8FE4FF40071884201D151
:20158000012000E00020C0B200E00020F2BD2DE9F0418EB004000D0016001F0001A8211D57
:2015A0000E2200F09FFB05A800903B003200D2B229002000FFF7BAFE8046201D01A90E226F
:2015C00000F090FBB8F1000F11D041462000FFF7DFFD8046202000F08FFA002805D005AB52
:2015E0004246216800F00FF900E0002000E000200EB0BDE8F0812DE9F04F89B005000E006D
:2016000017009846139C5FF0000AE4B2002C07D143463A00D2B231002800FFF7B8FF8BE07B
:2016200043463A00D2B231002800FFF7AFFE00281CD0E4B2012C07D143463A00D2B2310040
:201640002800FFF7A4FF77E0E4B2022C04D13C481121017000206FE0E4B2032C06D143461E
:201660003A00D2B23100280000F06CF801A8FEF7ADFDFFB2092F01D3082007000822202160
:2016800001A800F0B6F9FFB23A0092B201A9300000F0A0F9032203A9404600F09BF9032171
:2016A00003A800F0EFF912980890129800281BD012992868FFF757FAADF80000BDF80020AC
:2016C00000212868FFF72EFB8246BAF1000F04D11B481021017000202EE05046ADF81E0057
:2016E0005FEA1A40ADF8180001A92800FFF7CAFE8146B9F1000F14D049462800FFF748FDA4
:201700008146202000F0F8F9002806D001AB4A46296800F078F8834601E05FF0000B584614
:201720000AE0BAF1000F03D051462868FFF7D1FB034816210170002009B0BDE8F08F000059
:20174000834300202DE9F0438DB004000D0016001F0001A8211D0E2200F0C4FA05A80090D5
:201760003B003200D2B229002000FFF7DFFD8046201D01A90E2200F0B5FAB8F1000F1FD03A
:2017800041462000FFF7E2FE002801D1002018E02068FFF704F8002809D0BDF8280081469B
:2017A0005FEA0949BDF82E0050EA090902E0BDF82E00814649462068FFF78BFBC0B200E0EE
:2017C00000200DB0BDE8F08370B588B004000D00160000AA2900200000F0BFFA00280FD0ED
:2017E0000322202102A800F004F9032202A9300000F0F0F800AA2900200000F0CCFA00E08B
:20180000002008B070BDF8B504000D0016001F0025600020A06066603900200000F009F81B
:201820002000F2BD10B50400200000F01CF8200010BD38B504000D00E869A0602068FEF733
:20184000AEFF002809D0A88AE060E0680004E060E068698B0843E06001E0688BE0602000E1
:2018600000F002F831BD704710B5040000202061E068606161692068FFF786F9A06100207E
:20188000A08310BDF8B504000D002069A16888421AD2A0682169401A0600B6F5007F02D95B
:2018A0004FF4007006002A00A169206823681B68DB6898470700BFB2BE4202D3380080B2CC
:2018C00003E0300080B200E00020F2BD38B504000D00E06800280BD02069A168884207D296
:2018E0002A00A169206823681B681B69984700E0002032BD2DE9F04104000D001600F6B2B6
:20190000002E2BD1680A80465FEA48202061E06860612068FFF725F90700BFB2B8450FD337
:20192000BFB2B8EB070861692068FFF736F9606161692068FEF735FF0028EED100200EE0DC
:20194000A4F81C8061692068FFF71EF9A061A069A18B10FA81F0A061012000E00020BDE878
:20196000F08138B50400A069401CA061A08B401CA0832068FFF7F5F8A18B814214D3002094
:20198000A08361692068FFF708F9050029002068FEF707FF002801D100200AE06561616996
:2019A0002068FFF7F1F8A061206900F200202061012032BD01698068814201D3012000E0A9
:2019C0000020C0B2704780687047002818BF00F00BBA704710B4002423009BB292B2934243
:2019E00005D29BB29BB21C5C5C545B1CF5E710BC704710B4002423009BB292B2934203D232
:201A00009BB219545B1CF7E710BC704730B4030000200400A4B292B2944209D2A4B2E05C4C
:201A2000A4B2655CA84201D0002002E0641CF1E7012030BC704770B4030000200400A4B215
:201A400092B294421BD2A4B2E05C0500A4B2605C0600EDB2612D03D3EDB27B2D00D2203D57
:201A6000F6B2612E03D3F6B27B2E00D2203EEDB2F6B2B54201D0002002E0641CDFE7012060
:201A800070BC704710B402000020002423000C00E4B29BB2A4B2A3420FD29BB29C5C612C59
:201AA00009D39BB29C5C7B2C05D29BB29C5C203C9BB29C54401C5B1CE9E7C0B210BC704711
:201AC000427E002A06D089B2406950F821000001000903E089B2406930F811007047437E77
:201AE000002B04D089B2436943F8212003E089B2436923F81120704710B5044601E000F0D7
:201B0000B7F9204600F0B6F928B9034800680100F5D08047F5E710BD74430020FFF755BF65
:201B2000FFF7EABF0021817670470200481E000970472DE9F04104000D00606900281DD0D9
:201B4000206890F8200035FA00F00700207E874201D3002014E0606950F827000600310071
:201B60002068FFF711F880462068FEF7FAFF07FB1050050015EB0808404601E0E06928183B
:201B8000BDE8F0810200481E10F00F0070472DE9F04104000D00160029002000FFF7C5FF90
:201BA000070039002000FFF7C4FF80462068006B804501D200200DE029002000FFF7E2FF8E
:201BC0003070424601212068FEF774FB01212068FEF76BFBBDE8F08170B504000D002878DE
:201BE000E5280AD02878002807D0E87A10F00700072802D0E87A000701D5002054E02079C9
:201C0000000704D5E87AC0060AD501204CE02079400705D5E87A1821084201D0002043E0DD
:201C2000207910F030000600F6B2012E20D3F6B2102E04D1E87A61790840060013E0F6B22B
:201C4000202E04D1E87A6179084306000BE0F6B2302E08D1E87A61790843C0B2002801D117
:201C6000012600E00026F6B2002E01D100201BE02079C00709D5A27B92B22900A01DFFF7F9
:201C8000DAFE002801D100200EE0207980070AD5032215F1080114F10F00FFF7CCFE002835
:201CA00001D1002000E0012070BD0300D2B2501C10EB0110704710B450F8041B81B1026887
:201CC0001218001D50F8043BDC0744BFA9F10104E31852F8044B43F8044B091FF9D1EBE7CF
:201CE00010BC704762B38B0708D0521E11F8013B00F8013B00F024808B07F6D1830740F052
:201D0000208000BF103A07D330B4B1E83810103AA0E83810F9D230BC530724BFB1E80810BC
:201D2000A0E8081044BF51F8043B40F8043BD20724BF31F8022B20F8022B44BF0B780370B1
:201D40007047083A07D3B1E80810083A40F8043B40F804CBF7D25307E4E72DE9F04182B0D8
:201D600004000D00160000AA29002000FFF70FFF8046B8F1000F0BD09DF8000018EB401004
:201D80000700202231003800FFF724FE012000E00020BDE8F6812DE9F04182B004000D00B2
:201DA000160000AA29002000FFF7F1FE8046B8F1000F16D09DF8000018EB401007002022A0
:201DC00039003000FFF706FE01212068FEF78CFA4FF40071884201D1012000E00020C0B298
:201DE00000E00020BDE8F68100B9704710B5A0F108042068082837D310F0070034D1012006
:201E000000F0B0F81948416809B18C4203D26160446017E019464B680BB1A342FAD30A6875
:201E200053189C421BD3A34204D123689A180A600C4607E04A681AB123681B199A420ED3D8
:201E400062604C60616851B1226813198B4206D10023036008688018206048686060012050
:201E6000BDE8104000F0A2B810BD00001043002000F0A8B870B5054605F10F00C408E4006E
:201E8000012000F06FF8A5422BD2082C04D2082402E00830FFF7A8FF244D286801000CD11A
:201EA000291D0868B8B10268A24238BF011DF8D316E01368A34213D2111D0A68002AF8D107
:201EC0000068291D00E0111D0A68824203D01368A342F8D304E000F089F80028D9D10021CA
:201EE00021B9012000F062F8002070BD0E683068A0F10802A2423CBF7068086007D3A219F3
:201F00000A6073685360001B0A6810603460086800281DBF41680029001D0020286001200C
:201F200000F044F806F1080070BD00001043002010B5234C2068A0B1201D00F06CF804F143
:201F4000080000F068F804F10C0000F064F804F1100000F060F804F11400BDE8104000F0A1
:201F60005AB810BD38B50446154D286890B9281D00F050F805F1080000F04CF805F10C005F
:201F800000F048F805F1100000F044F805F1140000F040F801202860052C06D205EB840087
:201FA000001DBDE8324000F037B831BD052805D2034901EB8000001D00F02FB870470000B9
:201FC000D0420020012000F029B850F8041B61B150F8042BD30744BFA9F101039A1800239D
:201FE00042F8043B091FFAD1EFE770470649086808B100207047054808600549C908C900FC
:20200000091A0160704700BF784300209043002090A30020704770477047704780B5C0468E
:20202000C046024A11001820ABBEFBE726000200DFF8800C00680100B1F5806F19DADFF867
:20204000780C085C000612D5DFF8700C008888420DD0DFF8640C085C10F07F00DFF8582CA4
:202060008854DFF8500C0160080080B224E0491CE2E701200100DFF83C0C0068814219DA25
:20208000DFF8340C085C000612D5DFF8300C008888420DD0DFF8200C085C10F07F00DFF8D9
:2020A000182C8854DFF80C0C0160080080B203E0491CE0E74FF6FF70704730B585B00400DE
:2020C000A4B2B4F5806F01D300201DE0A4B2200001F07DFAA4B22500AD0100A9280001F058
:2020E00054FABDF800004FF6FF7188420BD1A4B2DFF8C40B205C50F08000A4B2DFF8B81B4A
:202100006054012000E0002005B030BD2DE9F84304000D0000200600042E45DA0020070048
:20212000402F3FDA4020DFF8981B00FB0610385C002835D0DFF88C0B804618EB8608B8F8E6
:20214000000081464FF6FF701FFA89F981450ED1FFF76EFF81464FF6FF701FFA89F9814585
:2021600003D100BF5FF0FF3020E0A8F800904FF48070DFF8AC1C00FB061040F8274040203C
:20218000DFF83C1B00FB0610002139548020DFF8941C00FB061020F8175057EA861005E0DF
:2021A0007F1CBDE7761CB7E75FF0FF30BDE8F283F8B504000D006888060040F2FB30B6B29F
:2021C000864203D300BF7FF0020043E0B6B2DFF8EC0A30F826004FF6FF7188422DD068891E
:2021E000B6B2DFF8D81A11EB8601498888421ED06889B6B2DFF8C41A11EB86014988401AE6
:2022000080B2B0F5E04F12D2B6B2DFF8B00A30F826000700B6B2DFF8A40A20F82640B6B2B3
:20222000DFF8980A10EB86006989418000E02700380080B2FFF741FF0BE0B6B2DFF87C0A9A
:2022400020F82640B6B2DFF8740A10EB8600698941800120F2BD00002DE9F04385B00400BD
:202260000D00A4B2A1465FEA891900A919F13F0001F08BF99DF80800FF2805D029002000E0
:2022800080B2FFF795FF50E0DFF89C0B00884FF6FF71884203D000BF7FF0040045E06868D3
:2022A000804668880700DFF8840B0021016001200600B6B2402E2AD200A9B6B256EA090026
:2022C00001F063F9BDF80200BFB2B8420AD10198B6B256EA0801884204D1DFF8500BB6B231
:2022E000066012E09DF80800FF2804D1DFF8C409A4B204600BE09DF80800002805D12900E0
:20230000200080B2FFF754FF0FE0761CD1E76888DFF8141B0880DFF8A409A0F8FC4FDFF82D
:202320009C096989A0F8FE1F012005B0BDE8F0832DE9FF4104000D00DFF86C0D0068042818
:2023400003DB00BF7FF0050052E0DFF878098046DFF8540D006818EB8008A8F80040688920
:20236000A8F80200A4B22700BF0100200600B6B2402E35D200A9B6B256EA070001F005F934
:20238000019810F1010F04D1DFF82809A4B2046024E0B6B2DFF8100D00684FF48071DFF829
:2023A000802A01FB0020019940F82610B6B2DFF8F80C00688021DFF86C2A01FB0020BDF8C5
:2023C0000A1020F81610B6B2DFF8DC0C00684021DFF8EC2801FB002000213154761CC6E7C9
:2023E000DFF8C40C0068401CDFF8BC1C0860012004B0BDE8F0812DE9FF47DFF82C0A00887F
:2024000040F2FB31884211D2DFF8B008B0F8FC0FB0F5806F0AD2DFF8100A0088DFF89C18FB
:2024200031F820004FF6FF7188420FD1DFF8FC095FF0FF310160DFF8F0094FF6FF71018032
:20244000DFF878084FF6FF71A0F8FC1F00200400042C6EDA00200500402D68DA4FF480701A
:20246000DFF8BC1900FB041050F825008009060040F2FB30864202D35FF0010A01E05FF021
:20248000000A5FFA8AFABAF1000F36D1DFF82C0830F8260080465FEA88184FF48070DFF882
:2024A000801900FB041050F82500070017F03F00814658EA090900A9484601F066F8019880
:2024C000B8421AD1BDF80A008021DFF8382B01FB042131F8151088420FD0BDF80A00802105
:2024E000DFF8202B01FB042131F81510401A80B2B0F5E04F01D2012082465FFA8AFABAF1A7
:20250000000F12D04FF48070DFF8141900FB04105FF0FF3140F825108020DFF8E81A00FB24
:2025200004104FF6FF7120F815106D1C94E7641C8EE7012004B0BDE8F0871FB501F0CAF824
:2025400000200400B4F5806F3CD200A9A00101F01CF8BDF800004FF6FF7188420BD0DFF87C
:20256000580700212154DFF8040D0068401CDFF8FC1C086024E0BDF802004FF6FF71884229
:202580001ED0DFF83407205C10F07F00DFF8281760549DF80800F82807D0FE280BD100A937
:2025A000200080B2FFF758FE0AE000A9200080B2FFF7BEFE04E000A9200080B2FFF7F8FD1C
:2025C000641CBFE7FFF717FF04B010BD2DE9F04104000D001600A009070014F03F00804621
:2025E0001FFA88F8B8F1000F0BD100220021002000F0B4F8320092B22900200000F055F8B3
:2026000031E0DFF86C0C0088BFB2874229D11FFA88F8DFF8600C0068401C804506D1320030
:2026200092B22900200000F040F81CE0DFF8440C00681FFA88F8404508D2320092B22900C3
:202640001FFA88F8404600F089F80CE0320092B229001FFA88F8404600F080F85FF0FF305A
:2026600001E05FF0FF30BDE8F081000038B50400FFF7DEFC05004FF6FF70ADB2854200D174
:2026800000BFDFF83806A0F8FC5FDFF830060021A0F8FE1FDFF894075FF0FF310160DFF867
:2026A000D00B0480280080B232BD2DE9FF4704000D0016005FF01E09A009070014F03F0086
:2026C0008046DFF8F805B0F8FC0F82464FF6FF70824504D1380080B2FFF7C8FF82464FF661
:2026E000FF70824502D15FF0FF3033E01FFA88F858EA8A1A2900504600F0C7FE4FF6FF7099
:20270000ADF80000ADF802700194ADF80A60FE208DF8080000F0C4FF03904846B0F101092F
:20272000002805D000A9504600F00DFF4028F4D1DFF8400B1FFA88F8C0F800801FFA88F8A8
:20274000B8F13F0F04D100220021002000F006F84FF4006004B0BDE8F08700002DE9F14F93
:2027600086B00C0015005FF01E0BDFF8BC060088B0F5806F01D30020BFE0DFF84005B0F87E
:20278000FC0F0090DFF8A0060088DFF8301531F820000700DFF8DC0A00683F2818D1DFF8E1
:2027A00088060088DFF81415009A21F82020DFF878060088DFF8041511EB8000DFF8FC14E0
:2027C000B1F8FE1F4180380080B2FFF776FC82E0B8018046009880018146DFF8980A0068FE
:2027E000401C0600402E62D20698864234D1002C32D0210056EA090000F047FEDFF8280698
:2028000000884FF6FF71884200D100BF4FF6FF70ADF80400DFF810060088ADF80600DFF8CD
:202820000806008856EA8010029000208DF80C00ADF80E5000F034FF04901E208346584690
:20284000B0F1010B002830D001A956EA090000F07AFE4028F3D128E0002256EA090156EA68
:20286000080000F0F4FE1E2083465846B0F1010B00281AD001A956EA080000F086FE8246DC
:202880005FFA8AFABAF1400FEFD1ADF80E5000208DF80C0001A956EA090000F054FE8246F0
:2028A0005FFA8AFABAF1400FDFD1761C9AE7DFF878050088DFF80414009A21F82020DFF8E9
:2028C00068050088DFF8F41311EB80004580380080B2FFF7F2FBDFF8E4034FF6FF71A0F88C
:2028E000FC1FDFF844054FF6FF710180DFF884095FF0FF3101604FF4006007B0BDE8F08FA5
:20290000F0B4020089B292B24FF48070DFF8107500FB027050F82100030089B292B280200B
:20292000DFF8E07600FB027030F81100040000200500042D59D200200600402E53D292B242
:20294000954202D189B28E424BD04FF48070DFF8D07400FB057050F82600984241D18020EF
:20296000DFF8A07600FB057030F81600A4B2A04224D08020DFF88C7600FB057030F8160069
:20298000001B80B2B0F5E04F18D289B292B24FF48070DFF88C7400FB02705FF0FF3740F879
:2029A000217089B292B28020DFF8587600FB02704FF6FF7720F81170012017E04FF48070B6
:2029C000DFF85C7400FB05705FF0FF3740F826708020DFF8307600FB05704FF6FF7720F82D
:2029E0001670761CA9E76D1CA3E70020F0BC704770B4010000245FF0FF3000252A00042A55
:202A000035DA00252B00402B2FDA4FF48075DFF8106405FB026555F82350A94223D110F159
:202A2000010F15D08025DFF8DC6505FB026535F81350A4B2A54216D08025DFF8C86505FB21
:202A4000026535F813502D1BADB2B5F5E04F0AD253EA821528008025DFF8A86505FB026537
:202A600035F813502C005B1CCDE7521CC7E770BC704730B4010000200200042A18DA002029
:202A80000300402B12DA4FF48070DFF8EC5700FB025050F823008009040089B2A4B2A142D6
:202AA00002D153EA821005E05B1CEAE7521CE4E75FF0FF3030BC704710B401000020020006
:202AC000042A21DA00200300402B1BDA4FF48070D34C00FB024050F82300814210D14FF469
:202AE0008070CF4C00FB02405FF0FF3440F823408020DFF8104500FB0240002420F81340D9
:202B00005B1CE1E7521CDBE7012010BC704700002DE9F34F89B0FFF78BFA019001984FF627
:202B2000FF71884203D100BF5FF0FF30BEE0BDF82800BDF824104FF48072B94B02FB01317E
:202B400051F82000029002988009040040F2FB30A4B2844203D300BF7FF00200A6E0A4B2F8
:202B6000DFF8180730F82400ADF80000BDF80000002800D100BF029810F03F00ADF8020081
:202B80000298BDF80210401A049001988001039000200500402D71DABDF8020085420DD100
:202BA00048488146BDF8240019EB8009B9F800008246BDF8280050EA8A1A2CE00498284311
:202BC000FFF716FF82461AF1010F1FD05FEA9A1006001AF03F0007003A48814619EB8609F3
:202BE000B9F80000824657EA8A1A4FF480708C4900FB06105FF0FF3140F8271080208949FE
:202C000000FB0610002120F8171004E0BDF80000824655EA8A1A0022039855EA000150466C
:202C200000F015FD1E2083465846B0F1010B00281ED005A9504600F0A8FC80465FFA88F8B3
:202C4000B8F1400FF0D1ADF81640BDF81E00401CADF81E0000208DF81C0005A90398284359
:202C600000F071FC80465FFA88F8B8F1400FDBD104982843FFF720FF6D1C8BE7A4B2DFF870
:202C8000FC05019920F8241005A90198800100F07CFCA4B2DFF8E40510EB8400BDF81E10A5
:202CA0004180BDF80000FFF708FA01200BB0BDE8F08F00005443002050360020A400002085
:202CC00050400020901000202DE9F04704000026A4B2042C01D300209FE0A4B24FF480708B
:202CE0004F4900FB04108046402E1ADAD8F8000010F1010F0DD0310089B2200080B2FFF793
:202D0000FFFD002805D1310089B2200080B2FFF7FFFE5FF0FF30C8F8000018F10408761C23
:202D2000E2E7DFF85C058146A4B219EB8409B9F80000FFF7C2F9A4B2601CDFF84815086014
:202D4000DFF840050068042803DBDFF838050021016000200600402E09DAA4B24020DFF84B
:202D6000281500FB041001213154761CF3E7FFF75FF907004FF6FF70874207D100BF4FF646
:202D8000FF70A9F800005FF0FF3046E0A9F8007000200500042D3FDAA4B2A5423AD0012097
:202DA000824600200600402E0EDA4FF480701C4900FB051050F8260010F1010F02D00020B6
:202DC000824601E0761CEEE75FFA8AFABAF1000F20D0DFF8AC04814619EB8509B9F80000CB
:202DE000FFF76BF94FF6FF70A9F8000000200600402E0FDA4020DFF8901400FB051001219A
:202E0000315480207F4900FB0510002120F81610761CEDE76D1CBDE70120BDE8F087000086
:202E2000503A0020503E00207C430020504300202DE9F64F87B00400BDF8200010F1010A31
:202E40005FF01E09A009ADF80400BDF80400FFF710FE10F1010F1DD114F03F000600BDF8F0
:202E60000400DFF80C140988884206D1DFF804040068B04201D31AF1010A524692B2079986
:202E80002000FFF7A3FB0090009810F1010F01D000989AE0BDF8200082462000FFF7A8FD0A
:202EA000050015F1010F3FD0A809070015F03F0080461FFA88F8BFB28020524900FB0710CF
:202EC00030F81800BDF82010401A612805DB414689B2380080B2FFF71BFE1FFA88F8BFB2C5
:202EE0008020484900FB071030F818001FFA8AFA504519D01FFA88F8BFB28020414900FB05
:202F0000071030F81800B0EB0A0080B2B0F5E04F0AD21FFA88F8BFB280203A4900FB071094
:202F200030F81800401C82461AF1010A514689B22000FFF7EBF8050015F1010F0BD1DFF87E
:202F40004403006880B2FFF7BFFE514689B22000FFF7DCF8050015F1010F03D100BF5FF024
:202F6000FF3032E0A809070015F03F008046DFF810038346BFB21BEB870BBBF800001FFAC6
:202F800088F858EA801006000799300000F07DFA4FF6FF70ADF808000020ADF80A000394DB
:202FA000F8208DF81000ADF812A000F079FB05904846B0F10109002805D002A9300000F013
:202FC000C2FA4028F4D14FF4006009B0BDE8F08F80B500F00AFAFFF7B0FA01BD10B500201C
:202FE0000400B4F5806F09DAA848205C002803D0200080B2FFF761F8641CF2E7FFF79DFA64
:2030000010BD0000503E00202DE9F0470400A009050014F03F00060040F2FB30ADB285426A
:2030200003D300BF7FF002003CE091480088ADB285420DD18F480068B6B2B04208D38F48BE
:20304000B0F8FC0F0700B6B256EA8710804628E02000FFF7CDFC8146B9F1FF0F12D85FEA18
:203060009910050019F03F00060085488246ADB21AEB850ABAF800000700B6B256EA8710D4
:2030800080460EE0ADB27D4830F825000700B7F5806F02D37FF00B0004E0B6B256EA8710F7
:2030A00080464046BDE8F0874C430020F0B585B004000D002000FFF7A7FF0700002F18D430
:2030C000B7F5803F15DA2900380000F00DFA00F0E7FA060000A9380000F057FA0398B042B8
:2030E00004D0019810F1010F00D000BF4FF4006001E04FF4006005B0F0BD00002DE9F24FE3
:2031000086B0040000208DF810005FF000095FF01E0AA009050014F03F00060040F2FB309D
:20312000ADB2854203D300BF7FF002009AE0ADB2524830F8250007004FF6FF70874221D12D
:20314000B6B2012E02D301208DF81000FEF770FF07004FF6FF70874203D100BF5FF0FF3054
:2031600080E0B6B256EA87108046ADB2434820F82570ADB2414810EB8500A0F802900120A0
:20318000834624E0B7F5806F03D300BF7FF0030068E0B6B256EA8710804600A9404600F054
:2031A000F4F9019810F1010F06D19DF80800FF2802D15FF0010B01E05FF0000B5FFA8BFB95
:2031C000BBF1000F03D1BDF80A00401C81465FFA8BFBBBF1000F3FD00699404600F055F972
:2031E0004FF6FF70ADF80000ADF80250019400208DF80800ADF80A9000F052FA0390504699
:20320000B0F1010A002805D000A9404600F09BF94028F4D1B6B2012E1BD39DF810000028D3
:2032200017D0B6B2A01B01900020ADF80A0000200390B6B2B8EB06081E2082465046B0F11B
:20324000010A002805D000A9404600F07CF94028F4D14FF4006005E04A4692B2069920008A
:20326000FFF7E6FD07B0BDE8F08F0000484300207C43002050430020503A0020A4000020EF
:203280009010002058430020504000205036002000B583B00121182000F0E6FA01214FF4E6
:2032A000804000F00EFB0121012000F0ECFA00A800F07DFB4DF6B300009002208DF80500FA
:2032C00002208DF8040000208DF8060001208DF8070000A9DFF8DC0300F014FB0C2200213E
:2032E000DFF8D00300F06FFB0C220121DFF8C40300F069FB0C220421DFF8B80300F063FB55
:203300000C220521DFF8AC0300F05DFB0C220721DFF8A00300F057FB0C220B21DFF89403B1
:2033200000F051FB0C220C21DFF8880300F04BFB0C220E21DFF87C0300F045FB0C220F211D
:20334000DFF8700300F03FFB4FF4F060009002208DF8050002208DF8040000208DF80600D4
:2033600001208DF8070000A9DFF84C0300F0CAFA0C220721DFF8400300F025FB0C22082146
:20338000DFF8340300F01FFB0C220921DFF8280300F019FB0C220A21DFF81C0300F013FB6A
:2033A0004020009000208DF8040000208DF8070000A9DFF8000300F0A5FA082000900120DD
:2033C0008DF8040000208DF8060001208DF8070002208DF8050000A9DFF8D80200F092FA8A
:2033E000DFF8D8020821018007BD00B591B0FFF74FFF102008900020099000200A904020D9
:203400000B905FF4C0200C9000200D9000200E9001200490032005900220069001200790EA
:2034200004A80F900120009003200190022002900120039000A8109008A800F0F1FA01217F
:20344000102000F037FB0121102000F05BFB11B000BD10B4030008000021814205D25FF02B
:20346000E0442478CC54491CF7E710BC704730B4030008000021814205D2CC5C5FF0E04560
:203480002C70491CF7E730BC704770B504000D0040268B48002101708948802101708948F5
:2034A0000021017087480021017086480470200A84490870844800688449084082490860EC
:2034C0008148006850F040007F49086001224FF400612800FFF7CBFF79481021017000F009
:2034E00087F80600300070BD70B504000D00402673480021017073480021017071480021DA
:20350000017070480470200A6E4908706C4830210170322000F02AFB6B4800686B490840C1
:20352000694908606848006850F040006649086001224FF400612800FFF78BFF00F058F813
:203540000600300070BD70B504000D0040265C48002101705A48802101705A48002101704E
:2035600058480821017057480470200A55490870012210212800FFF77AFF51481021017098
:2035800000F036F80600300070BD70B504000D0040264B48002101704A4800210170494834
:2035A0000821017047480470200A46490870444830210170322000F0D9FA0122102128005E
:2035C000FFF747FF00F014F80600300070BD10B50400A4013A48602101703A480470200A4E
:2035E000384908703648D021017000F001F810BD38B55FF08075402400F01DF80400600638
:2036000006D4002D04D000F016F804006D1EF6E7002D02D14FF480600400E00702D501205F
:20362000040006E0600602D54020040001E000200400200032BD00210020214A7023137029
:203640005FF0E0421278D2B21100080070472DE9F041ADF5006D04000D00160064275FF0C4
:2036600040083800471E002813D000A92000FFF73BFF80465FFA88F8B8F1400FF1D100A95F
:203680002800FFF702FF80465FFA88F8B8F1400FE7D15FFA88F840460DF5006DBDE8F081D8
:2036A0000B48006808490968084A1140064A116070470000000C024000100240180C02406C
:2036C0000000017000000270600000A0BFFF0F00740000A080B54FF48052FF211748FEF768
:2036E00088F94FF48062FF211548FEF782F94FF48062FF211348FEF77CF94FF40072FF2158
:203700001148FEF776F94FF48072FF210F48FEF770F90F484FF6FF7101800E485FF0FF3180
:2037200001600D48002101600C48002101600C48002101600B480021016001BDA40000204E
:2037400050360020503A0020503E0020504000207C430020504300204C43002054430020C3
:203760005843002048430020F0B4002100220023022400250226DFF868713F6817F00C07F5
:2037800039000F00002F04D0042F06D0082F08D03CE0DFF8547107603BE0DFF8507107608D
:2037A00037E0DFF840713F68C7F380573D00DFF834713F6817F03F073E00002D0DD0DFF866
:2037C0002C71B7FBF6F7DFF81CC1DCF800C0CCF3881C0CFB07F73B000CE0DFF80C71B7FBD0
:2037E000F6F7DFF800C1DCF800C0CCF3881C0CFB07F73B00DFF8EC703F68C7F301477F1C96
:203800007F003C00B3FBF4F7076002E0DFF8D8700760DFF8CC703F6817F0F0073900090982
:20382000DFF8CC70CF5D3A000768D7404760DFF8B0703F6817F4E0573900890ADFF8B0703F
:20384000CF5D3A004768D7408760254F3F6817F460473900490BDFF89870CF5D3A00476807
:20386000D740C760F0BC7047C9B2002905D0214A126802431F4B1A6004E01E4A1268824395
:203880001C4B1A607047C9B2002905D01A4A12680243194B1A6004E0174A12688243164B31
:2038A0001A607047C9B2002905D0144A12680243124B1A6004E0114A126882430F4B1A6018
:2038C0007047C9B2002905D00D4A126802430C4B1A6004E00A4A12688243094B1A607047D5
:2038E00008380240043802400024F40040787D0160000020303802403838024040380240E4
:2039000044380240F0B400220023002400252A00102A4AD2012595402B000D681D402C0013
:203920009C4240D1056803261700FFB27F00BE40B543056005680E791700FFB27F00BE4027
:20394000354305600D79012D02D00D79022D1AD1856803261700FFB27F00BE40B54385602C
:2039600085684E791700FFB27F00BE4035438560456801269640B543456045688E79964020
:20398000B6B235434560C56803261700FFB27F00BE40B543C560C568CE791700FFB27F002F
:2039A000BE403543C560521CB2E7F0BC70474FF6FF71016000210171002141710021817173
:2039C0000021C1717047F0B400230024D2B211F00705EDB2AD0012FA05F52B0089B2CD10CC
:2039E00010EB850589B2CE1010EB8606366A0F2711F0070C5FFA8CFC5FEA8C0C17FA0CF7E2
:203A0000BE432E6289B2CD1010EB85052D6A1D432C0089B2CD1010EB85052C62F0BC7047C7
:203A200030B4002100220023446885682C43C5682C4305692C43456954EA4524856954EA3A
:203A4000453454F008042100C4692468C5696D6854EA0524C569AD6854EA0544C569ED680C
:203A600054EA05642200046A2468056A6D6854EA0524056AAD6854EA0544056AED6854EACB
:203A8000056423000468102C09D1DFF8C0402160DFF8BC402260DFF8BC40236008E0DFF856
:203AA000B8402160DFF8B4402260DFF8B440236030BC7047C9B2002913D0102808D1DFF8E0
:203AC0008C20126852F00402DFF880301A6018E0DFF88420126852F00402DFF87C301A6045
:203AE0000FE0102807D1194A1268DFF878301A40164B1A6005E0184A12681A4B1A40164B55
:203B00001A607047C9B200290FD0102806D10F4A126852F040020D4B1A6015E00E4A1268F2
:203B200052F040020C4B1A600EE0102806D1074A12680D4B1A40054B1A6005E0064A12683D
:203B4000094B1A40044B1A6070470000600000A0680000A06C0000A0800000A0880000A0DB
:203B60008C0000A0FBFF0F00BFFF0F000200501E002A07D0192211000A00511E92B2002A9F
:203B8000FAD1F3E7704710B504002000441E002804D04FF47A70FFF7E9FFF6E710BD0000CD
:203BA00070B50400002600200500200000F089FE00284FD0200000F090FE0500002D01D111
:203BC000002048E0C5F3C000C00704D5200000F076F830430600C5F30010C00704D5200006
:203BE00000F092FD30430600C5F34010C00704D5200000F082F830430600C5F38060C007C3
:203C000004D5200000F006F930430600C5F34060C00704D5200000F01FF830430600C5F3F3
:203C20000060C00704D5200000F082F930430600C5F34070C00704D5200000F04FF83043AE
:203C40000600C5F34050C00704D5200000F0E6FD30430600300070BD2DE9F041040000273B
:203C60005FF00008200000F058FE0500002007002078874220D2A8B20121B94080B2084217
:203C800018D014EB8700D0F8900000680600C6F3C030C00707D53900200000F06FFB50EAB7
:203CA0000800804606E03900200000F0C7F950EA080080467F1CDBE74046BDE8F08138B559
:203CC0000400002005002000DB4909680968884755F00805E0684561012032BD38B5040085
:203CE000002005002000D44909688968884755F00055E0684561012032BDFEB50400E0689A
:203D0000C06A00900198C0F3C30014EB4010D0F8BC03C01C80080600009880B2B6B280B236
:203D2000864275D20198C0F3C30014EB4010D0F8BC0300286CD0009880B280000700019841
:203D4000C0F3C30014EB4010D0F8BC03BFB2B84210D20198C0F3C30014EB4010D0F8BC03E5
:203D600007000020050055F02005E0688069A843E16888610198C0F3C30014EB4010D0F839
:203D8000BC03C01C800806003B009BB20198C0F3C302D2B20198C0F3C30014EB4010D0F8B7
:203DA000B813200000F04EFD0198C0F3C30014EB4010BFB20199C1F3C30114EB4111D1F8E2
:203DC000B8137918C0F8B8130198C0F3C30014EB40100199C1F3C30114EB4111D1F8BC13AB
:203DE000BFB2C91BC0F8BC130198C0F3C30014EB40100199C1F3C30114EB4111D1F8C0138A
:203E000011FA87F1C0F8C013E068C06A009083E70120FEBDF0B583B00400606900690090AE
:203E20000198C0F3C30014EB4010D0F8BC03C01C80080600009880B2B6B280B2864275D2C0
:203E40000198C0F3C30014EB4010D0F8BC0300286CD0009880B2800007000198C0F3C300B9
:203E600014EB4010D0F8BC03BFB2B84210D20198C0F3C30014EB4010D0F8BC030700002013
:203E8000050055F08065E0688069A843E16888610198C0F3C30014EB4010D0F8BC03C01CE4
:203EA000800806003B009BB20198C0F3C302D2B20198C0F3C30014EB4010D0F8B813200046
:203EC00000F0C0FC0198C0F3C30014EB4010BFB20199C1F3C30114EB4111D1F8B8137918DF
:203EE000C0F8B8130198C0F3C30014EB40100199C1F3C30114EB4111D1F8BC13BFB2C91B91
:203F0000C0F8BC130198C0F3C30014EB40100199C1F3C30114EB4111D1F8C01311FA87F13A
:203F2000C0F8C01360690069009083E70120FEBD2DE9F84304005FF000085FF000090020CA
:203F400007000020050000200600D4F8CC0000680500D4F8CC000068060036F0040636F0AE
:203F6000020636F0080636F02006C5F34000C00708D556F0020620002F4909684968884746
:203F800059F00109C5F3C000C00741D556F00806C5F38000C0073BD5200027490968496864
:203FA0008847C5F34140C0B2022804D0C5F34140C0B201282AD1606900680700C5F3414049
:203FC000C0B2022812D1606941F27071416017F00300C0B202281BD0207A022803D1022198
:203FE000200000F083FC0120804611E060694BF68031416017F00300C0B2012808D001215F
:20400000200000F073FC0120804601E001208046C5F34010C00703D556F0200659F001090C
:20402000B8F1000F02D0200000F07AFCD4F8CC0006604846BDE8F2839C0000202DE9F843BD
:2040400004000D0014EB8500D0F890000700B8688146F868060016EA090914EB8500D0F8C1
:20406000900000688046C9F38000C00712D50021080050F00400B86014EB8501D1F8901025
:20408000C968080050F0020014EB8501D1F89010C86070E1C9F34010C00705D50021080068
:2040A00050F02000B86066E1C9F34020C00718D514EB8501D1F89010C968080050F0020008
:2040C00014EB8501D1F89010C8602900C9B2200000F03FFC002108004FF400710843B8609B
:2040E00049E119F00100C0B2002820D014EB85000021C0F8141314EB8501D1F89010C9685F
:20410000080050F0020014EB8501D1F89010C8602900C9B2200000F01CFC0021080050F00A
:204120000100B8602819012180F88C1323E1C9F3C000C0071BD50021080050F00800B8602C
:2041400014EB8501D1F89010C968080050F0020014EB8501D1F89010C8602900C9B220001C
:2041600000F0F7FB2819052180F88C1303E1C9F30010C00720D514EB85000021C0F81413EF
:2041800014EB8501D1F89010C968080050F0020014EB8501D1F89010C8602900C9B22000DC
:2041A00000F0D7FB0021080050F01000B8602819032180F88C13DEE0C9F3C010C00724D526
:2041C00014EB8501D1F89010C968080050F0020014EB8501D1F89010C8602900C9B220009C
:2041E00000F0B7FB14EB8500D0F81403401C14EB8501C1F814032819062180F88C13002169
:20420000080050F08000B860B5E0C9F38010C00720D514EB85000021C0F8141314EB850118
:20422000D1F89010C968080050F0020014EB8501D1F89010C8602900C9B2200000F089FB4C
:204240000021080050F04000B8602819042180F88C1390E0C9F38020C00720D514EB850113
:20426000D1F89010C968080050F0020014EB8501D1F89010C8602900C9B2200000F069FB2C
:204280000021080050F01000B8602819082180F88C130021080050F48060B8606BE0C9F3A0
:2042A0004000C00767D514EB8501D1F89010C968080030F0020014EB8501D1F89010C8605C
:2042C000281990F88C03012813D12819012180F89B13C8F38140C0B2022847D114EB45106C
:2042E00090F8C50390F0010014EB451181F8C5033CE0281990F88C03032804D1281902217F
:2043000080F89B1332E0281990F88C0304280FD114EB451090F8B003012804D12900C9B2D0
:20432000200000F054FB2819022180F89B131DE0281990F88C03052804D12819042180F85F
:204340009B1313E0281990F88C0306280ED114EB8500D0F81403032808D12819032180F813
:204360009B1314EB85000021C0F814130021080050F00200B8600120BDE8F2832DE9F04700
:2043800004000D0014EB8500D0F890008146D9F808008246D9F80C00060016EA0A0A14EBD2
:2043A0008500D0F890000068070000200600CAF38000C00713D50021080050F00400C9F871
:2043C000080014EB8501D1F89010C968080050F0020014EB8501D1F89010C86059E0CAF360
:2043E0004010C00706D50021080050F02000C9F808004EE0CAF3C000C00724D514EB850189
:20440000D1F89010C968080050F0020014EB8501D1F89010C8602819052180F88C13002103
:20442000080050F01000C9F808000021080050F00800C9F808003AF0100A2900C9B2200019
:2044400000F087FA25E0CAF38020C00721D514EB8501D1F89010C968080050F0020014EB64
:204460008501D1F89010C8602900C9B2200000F070FA0021080050F01000C9F80800281984
:20448000082180F88C130021080050F48060C9F80800CAF34020C00719D514EB8501D1F8A6
:2044A0009010C968080050F0020014EB8501D1F89010C8602900C9B2200000F04AFA0021B2
:2044C00008004FF400710843C9F8080019E11AF00100C0B2002862D0E078012811D114EBD9
:2044E0008500D0F890000069804614EB4510D0F8BC035FEA4831490B401A14EB8501C1F827
:2045000050032819012180F88C1314EB85000021C0F814130021080050F00100C9F8080017
:20452000C7F38140C0B2002804D0C7F38140C0B2022822D114EB8501D1F89010C968080061
:2045400050F0020014EB8501D1F89010C8602900C9B2200000F0FDF90021080050F01000E0
:20456000C9F8080014EB451090F8C40390F0010014EB451181F8C403C3E0C7F38140C0B229
:20458000032840F0BE8057F0005714EB8500D0F8900007602819012180F89B13B1E0CAF3CA
:2045A0004000C0074AD514EB8501D1F89010C968080030F0020014EB8501D1F89010C86076
:2045C000281990F88C03012804D12819012180F89B132CE0281990F88C03052804D1281955
:2045E000042180F89B1322E0281990F88C03062804D0281990F88C03082809D114EB85002E
:204600000021C0F814132819032180F89B130EE0C7F38140C0B2032809D114EB451090F853
:20462000C40390F0010014EB451181F8C4030021080050F00200C9F8080062E0CAF3C0109A
:20464000C00725D514EB8501D1F89010C968080050F0020014EB8501D1F89010C86014EB1B
:204660008500D0F81403401C14EB8501C1F814032819062180F88C132900C9B2200000F0F2
:2046800068F90021080050F08000C9F8080038E0CAF30010C00734D5C7F38140C0B203283A
:2046A00012D114EB8501D1F89010C968080050F0020014EB8501D1F89010C8602900C9B2F4
:2046C000200000F046F912E0C7F38140C0B2002804D0C7F38140C0B2022808D157F0004732
:2046E00037F0804714EB8500D0F8900007602819032180F88C130021080050F01000C9F8D3
:2047000008000120BDE8F0872DE9F843040000208DF800000020060056F01006E0688069A7
:20472000B043E1688861E068006A050015F00F008DF800009DF8000014EB8000D0F8900098
:2047400000688046C5F3434002285DD1C5F30A1080B2012857D39DF8000014EB4010D0F895
:20476000B80300284FD0C5F30A1292B29DF8000014EB4010D0F8B813200000F087F815F014
:204780000F0014EB4010C5F30A1115F00F0214EB4212D2F8B8238918C0F8B81315F00F00A2
:2047A00014EB401015F00F0114EB4111D1F8C013C5F30A125118C0F8C0139DF8000014EB4C
:2047C0004010D0F8C00381469DF8000014EB8000C0F850939DF8000014EB8000D0F890001C
:2047E00000690700C7F3C94080B201280BD358F0004838F080489DF8000014EB8000D0F8F1
:204800009000C0F80080FFE756F01006E06880693043E16888610120BDE8F2830100D1F8B3
:2048200090000068030053F0004353F08043D1F8900003600020020052F40012C8684261E8
:2048400001207047F0B504000020E578002D1BD1002500269BB213F1030C5FF0040E9CFB9E
:20486000FEFC6546D2B214EB820CDCF8D0C067465FF0000C6646AE4206D2D1F800C0C7F85A
:2048800000C0761C091DF6E7C0B2F0BD70B403000800002192B2D41C042594FBF5F4D3F8B4
:2048A000D05000263100A14204D22E680660491C001DF8E770BC7047C068406910F00100B6
:2048C000704710B504002000FFF7F6FF012801D1012000E00020C0B210BD01000020CA689F
:2048E00052691000CA6892691040704743691B681A00C9B261F3010243691A6070470100C0
:20490000D1F8CC201268100030F0040030F0020030F0080030F020007047406940697047EA
:2049200038B504002000FFF7EAFF05004FF480700543D4F8CC0005600A2000F08FF835F440
:204940008075D4F8CC000560142000F087F8012032BD10B485B002000020002402940024B9
:204960000094C9B212EB8104D4F890402468230053F0004353F08043C3F38144E4B2002C92
:2049800004D0C3F38144E4B2022C0BD1D468E46A0294029CC4F30744E4B2002C0DD15B006D
:2049A0005B080AE0546924690094009CC4F30744E4B2002C01D15B005B08C9B212EB8104DF
:2049C000D4F890402360C0B205B010BC704730B40200002000252C0054F00044012565F3B1
:2049E000DC44C9B212EB8105D5F890502C61C9B212EB8105D5F890502D682B0053F000436E
:204A000033F08043C9B212EB8105D5F890502B60C0B230BC7047000080B543208DF8000048
:204A200001208DF8010001208DF8020000208DF8030000A800F021F801BD81B0002100912D
:204A4000782101FB00F10722B1FBF2F1009A521C0092914200D3F9E701B0704710B50400C7
:204A60004FF47A7000FB04F0FFF7E7FF10BD000025490143254A11607047F0B40023002140
:204A80000F22C478002C21D0204C246814F4E064D4F5E064240A2300D3F104042100D2B279
:204AA0001A4144788C4023008478144023431B010478174D635504786411164D012607788C
:204AC00017F01F07BE4045F8246009E004786411114D0126077817F01F07BE4045F8246020
:204AE000F0BC7047042806D10C49096851F004010A4A116005E00949096831F00401074A60
:204B000011607047000000000000FA050CED00E000E400E000E100E080E100E010E000E0FF
:204B2000DFF8E4090068C00707D4DFF8E0090068401CDFF8D819086006E0DFF8D0090068F5
:204B4000401EDFF8C8190860DFF8C0090068652808DBDFF8BC0901210170DFF8B00964211B
:204B600001600EE0DFF8A409006810F1640F08DADFF89C0900210170DFF890097FF0630153
:204B80000160704700B583B000A800F0E9FCDFF8840990F850008DF80400DFF8780990F8F3
:204BA00051008DF80500062100A800F056FD07BD30B583B004000D0000A800F091FDDFF81E
:204BC000540980F85040DFF84C0980F8515000F059FE002803D000208DF8060002E001203B
:204BE0008DF80600072100A800F037FD37BD2DE9F04184B004000D001600DFF81C0900683C
:204C0000002813D0DFF810090068002806D0DFF808090068FCF706FEFCF7D7FEDFF8F8084D
:204C200000210160DFF8F4080021016004220021DFF8EC08FCF7DDFE002D05D00322DFF8BF
:204C4000E0182800FCF7C6FE032001900096DFF8D43808222100DFF8D0084068FCF7CBFCF4
:204C6000DFF8B4180860DFF8B0080068002808D104208046DFF8A40800210160002007001B
:204C800015E0DFF8A8080090DFF8983808222100DFF894084068FCF749FB0700DFF87C0862
:204CA000076000208046DFF888080121017000A800F0E0FF0197CDF808800C2100A800F08C
:204CC000CCFCBDE8FF81F0B585B004000D001600DFF84808006884421CD1DFF83C08006821
:204CE000FCF768FE002812D13100DFF82C080068FCF7ECFD002807D0DFF81C080068FCF77B
:204D000030FE0020070007E00320070004E00220070001E00120070000A800F0BAFF019431
:204D200002950397102100A800F097FC05B0F0BD3EB50400DFF8E407006884422CD1DFF8C9
:204D4000D8070068002820D000220021DFF8C8070068FCF7CFFDDFF8C0070068002806D0E0
:204D6000DFF8B4070068FCF75DFDFCF72EFEDFF8A80700210160DFF8A827DFF8A007016838
:204D8000DFF8A4074068FCF71FFDDFF89007002101600020050001E00120050000A800F026
:204DA00089FF019402950C2100A800F056FC37BD0200012070473EB504000025A16860686D
:204DC000FFF7F6FF002802D00120050001E00020050000A800F07DFFDFF83807007B8DF898
:204DE0000800EDB2002D02D00020019001E001200190019800280AD1E068002802D00328C0
:204E000003D004E00220050001E003200500092100A800F022FC2800C0B23EBD70B5ADF56F
:204E2000067D04000025FF20ADF80400260002A800F05AFFD6F8060000904FF4007205A91E
:204E400016F10A00FCF7C6FDDFF8E8060168C9B205A800F04FFDB088002838D100980028D0
:204E600006D1DFF8D406059901605FF0FF30059005A9009800F08CFC4FF40071884206D086
:204E8000232001F013F80120ADF80C0002E00020ADF80C000098002805D1042205A9DFF80D
:204EA0009806FCF797FD4FF4007105A800F089FEADF804000222DFF8841601A8FCF78AFD94
:204EC0000422DFF87C1600A8FCF784FD14E00098002802D15FF0FF30059005A9009800F057
:204EE00084FC4FF40071884203D00120ADF80C0002E00020ADF80C000098CDF80E000A21C6
:204F000002A800F0AAFB2800C0B20DF5067D70BD7CB504000025260000A801F0E1F870683C
:204F2000002802D001280DD02DE0B06800F0B2FD002803D00020ADF8040002E00120ADF841
:204F4000040020E0307B01280DD1DFF8C805007B717B884207D0DFF8BC05717B0173DFF820
:204F6000E40501210170DFF8D0050168DFF8D80501F03BF9082803D10020ADF8040002E018
:204F80000120ADF80400062100A800F066FB2800C0B276BD2DE9F04182B000240025002672
:204FA0000027002000905FF00008EDB2FF2D00F0DF80FFF7B5FDDFF858050078002808D055
:204FC00001F0F9FA00A800F039FB80460020070007E03800471C40F6B931884201D3FF20D5
:204FE00005000120FEF7CFFDEDB2280000280AD001281CD0022855D0032800F09C80FF283F
:2050000000F0A280ABE0DFF808050078002804D0012005000020060000E0761C40F6B930BE
:20502000864203D300200600FF20050097E0B8F1000F28D000988078622818D0632819D0EB
:20504000A5281ED10098FFF7B6FE002807D0022808D00BD2002006000220050006E0002021
:20506000060003E000200600FF2005000CE0FFF789FD09E00098417900980079FFF798FDBE
:2050800002E0761C00E0761C40F6B930864208D300200600DFF878040078002801D1FF205E
:2050A00005005CE0B8F1000F59D000988078512814D052281CD0532824D0602806D0612825
:2050C00008D0632830D0A52821D033E00098FFF71FFF2FE00098FFF7A1FE2BE000980269A6
:2050E000009810F10C010098001DFFF780FD21E0009810F10C020098816800984068FFF783
:20510000E2FD17E000984068FFF712FE12E00098FFF751FE022804D0032804D1032005007E
:2051200001E0FF20050005E00098417900980079FFF73EFD13E0DFF8140401210170FF205D
:20514000050000F09FFB0AE0DFF804044FF400710180DFF8FC034FF48071018008E0DFF878
:20516000B003007800283FF420AF00F050FA1CE7BDE8F381F8B500200090002400250026B8
:205180000027EDB2FF2D4CD0FFF7CAFC0220FEF7FAFCDFF87C030078002808D001F00BFA74
:2051A00000A800F04BFA0400002007000AE03800471CB0F57A7F02D9FF20050002E00120C2
:2051C000FEF7E1FC002C0FD000988078A5280BD10098FFF7F0FD0098C068002802D0042858
:2051E00002D101E0FE200500002C05D000988078622801D1FFF7C6FCC5480078002801D0B5
:2052000000F005FAEDB2FE2DBBD13000461C80B2652802D3FF200500B3E70120FEF7B3FCA0
:20522000AFE7F1BD30B583B0040007250720ADF80000A5208DF802008DF80440052100A833
:2052400001F09EFAADF80500072100A801F08CFBC04A0521C04801F09FFB3EBD3EB504001E
:205260000A250A20ADF80000B1208DF80200ADF804400020ADF80600082100A801F080FAE8
:20528000ADF808000A2100A801F06EFBB14A0521B14801F081FB3EBD70B5A4B004000D0028
:2052A0008A268A20ADF80000B2208DF802000020ADF804000020ADF80600802202A9200095
:2052C000FCF788FB882100A801F05AFAADF888008A2100A801F048FB7FF07F4205219E48D2
:2052E00001F05AFB24B070BD10B584B00A240A20ADF80000B3208DF802000020ADF804004E
:205300000020ADF80600082100A801F039FAADF808000A2100A801F027FB1FBD10B584B065
:205320000A240A20ADF80000B4208DF802000020ADF804000020ADF80600082100A801F0BF
:205340001FFAADF808000A2100A801F00DFB1FBD2DE9F04FADF5097D002400250020009069
:20536000002600275FF0000A5FF0000801AB64A2032164A000F0C9FB8046B8F1000F0BD049
:205380009DF80400002807D0012004000822734901A8FCF71FFB01E00020040000208246C7
:2053A0003220FEF7F0FB2000C0B2FFF73BFF002808D069488078E4B2A04203D1E4B2002C42
:2053C0000AD107E0504610F1010A80B20B28E7D3012079E0002077E049A308225F49524801
:2053E0004068FCF7D4F88146B9F1000F01D102206AE04846FCF7E7FA009000208246009816
:2054000080B2FFF72BFF002807D1504610F1010A80B2652801D3012056E000224FF40071D8
:205420004846FCF767FA4846FCF7C4FA002838D109A94846FCF726FA0600B6B2002E0ED14C
:20544000FFF76CFF434A0121434801F0A5FA0500ADB2002D01D1012036E0032034E05FF001
:20546000000BBBF1040F17DA00208246390089B2802009AA00FB0B20FFF70EFF002807D199
:20548000504610F1010A80B2652801D301201BE07F1C1BF1010BE4E74846FCF762FA002838
:2054A000C1D1002200214846FCF724FAFFF71CFF284A0121284801F06FFA0500ADB2002D78
:2054C00001D1012000E000200DF5097DBDE8F08F38B5040000252800451C03280ED2322031
:2054E000FEF751FB2000C0B2FFF79CFE0028F2D0194880780128EED1002000E0012032BD0E
:2055000043464D0042465300100802405C430020874300205042002060430020644300209B
:2055200068430020507B0008F0420020B042002088430020980000208C0000209042002028
:20554000924200208643002000C0000889430020180C0240FFFF0F0050410020084300202B
:2055600010B50400200001F057FA062020806220A070200010BD000080B5544801F053FAAC
:2055800001BD10B403001888C0185418241FA04201D3002002E01888C318012010BC704788
:2055A0002DE9F04104000D00260014F10807B8463088A84229D146480121017030790028CD
:2055C00004D0032809D0042815D01BE0B8F8002040493800FCF7FEF917E0B8F800203D491F
:2055E0003800FCF7F7F92A0021003800FFF7C9FF0028F2D109E0B8F8002036493800FCF701
:20560000E9F902E0324800210170BDE8F08110B5314C002C0CD02088012809D321882000E4
:2056200000F0ADFF4FF4806200212B48FCF7E1F910BD80B5294800F0BBFF01BD0100254AFD
:2056400023480078002806D00A602148002303700868008800E000207047F0B5ADF2044DBC
:2056600004000D00002D02D02088A84201D0002027E015F10C073800ADF800001348408877
:20568000ADF80200114800798DF8040001208DF805003A0092B202A92000FCF79BF9380055
:2056A000811E89B200A801F06BF8060000A8381820F8026C3A0092B2074900A8FCF78AF9A4
:2056C00001200DF2044DF0BD00000000F842002084430020502E002050320020A15500082D
:2056E00010B50400200001F097F9072020806320A070200010BD0000F8B4DFF80C254AF209
:20570000A75344F2A55492EA00052E0CADF802602E00ADF80060BDF800605E40ADF80060B3
:20572000BDF802606640ADF80260BDF80260BDF8007056EA07460E60F1BC704730B585B0F0
:2057400004000025042D18DA00A8DFF8C01451F8251040F8251000A810EB850100A850F8A6
:205760002500FFF7C9FF042214EB850100A810EB8500FCF72FF96D1CE4E7DFF8940400682D
:205780000019DFF89014097B00F8011C05B030BDF8B504000D002F0004F1006010F5404073
:2057A000DFF874140860002006004FF40070864218DA3968DFF86004006800F016FDDFF871
:2057C0005804006800683968884201D030000BE0DFF844040068001DDFF83C1408603F1DB7
:2057E000361DE2E74FF40070F2BD70B402004FF400730C0002F1006010F54040DFF8186418
:205800003060002005009D4213DADFF80C04006800682668B04202D0280080B20BE0DFF8E2
:20582000F8030068001DDFF8F0633060241D2D1DE9E74FF4007070BC7047F0B40200002473
:205840004FF400750E0002F1006010F54040DFF8C873386000200300AB420FDADFF8B80375
:205860000068006846F82400DFF8AC030068001DDFF8A4733860641C1B1DEDE74FF4007026
:20588000F0BC7047F8B5DFF88C63DFF89073082000F0D5FC00F030FC6420FEF774F902214A
:2058A000582000F042FC0500EDB2082D01D0012012E000200400602C0DDA3168380000F02D
:2058C00094FC38683168884201D0022004E03F1D361D241DEFE70020F2BD884080B2020AC3
:2058E0001043C0B270470002C84080B2020A1043C0B270472DE9F04F89B004008A4601A85D
:20590000202101F09BF801A8FFF718FF01A8002804D05FFA8AFABAF1000F00D13AE04FF4A2
:205920008070009000200700012005000098854230D24FF40070401B0600FFB201A8385C37
:20594000804618F0070081464946C9B2285D80B2FFF7C9FF28554946C9B2305D80B2FFF7F0
:20596000BCFF3055285D98EA00002855305D98EA00003055285D8346305D285506F804B0C5
:205980007F1CFFB25FFA8AFA574501D3002007006D1CCBE709B0BDE8F08F01000020DFF837
:2059A0008022914205D2B1F1006F02D3002210006FE0DFF87022914206D2DFF864229142F0
:2059C00002D30822100064E0DFF85C22914206D2DFF85022914202D31022100059E0DFF831
:2059E0004C22914206D2DFF84022914202D3182210004EE0DFF83822914206D2DFF82C2234
:205A0000914202D32022100043E0DFF82822914206D2DFF81C22914202D32822100038E06E
:205A2000DFF81422914206D2DFF80822914202D3302210002DE0DFF80422914206D2DFF817
:205A4000F821914202D33822100022E0DFF8F021914206D2DFF8E421914202D34022100090
:205A600017E0DFF8E021914206D2DFF8D421914202D3482210000CE0DFF8CC21914206D263
:205A8000DFF8C021914202D35022100001E0582210007047F8B5040000F02EFBF32000F035
:205AA000CEFB18255026002C06D004F1006010F54040FFF772FF06002F00BE4217D30221E5
:205AC000380000F032FB08280FD0DFF880014FF4806101804FF49660FEF755F8DFF87001A2
:205AE0004FF480610180002002E00837E5E70120F2BD80B5DFF85C010078002803D0FFF752
:205B0000C1FE012000E0002002BD2DE9F04104000D0016001F003900DFF83C014068FBF772
:205B2000B6FB8046B8F1000F18D0EDB22A0092B221003800FBF76AFF002807D00322310038
:205B400017F10800FBF762FF002807D13A00414641484068FBF7A9FB8046E3E74046BDE89F
:205B6000F081000001B480F30888704701B070471CB5FEF751FF00F092F92B4800680090E1
:205B8000009836490840B0F1005F09D13448006801900198040024480068FFF7E3FFA04727
:205BA00013BD1B480068194940181A49097B00F8011C70472B48FF2101702B48FF210170D5
:205BC000704710B402000800411E002811D026480078147860400300521C22480078234C04
:205BE0001C5D6040204C20702148185C1D4C2070E9E71D4800781B4C247854EA002000B2FA
:205C000010BC704700000000A545A7A540000020980000205042002094000020A0FF0F0897
:205C2000004000080080000800C0000800000108000002080000040800000608000008088F
:205C400000000A0800000C0800000E08180C02401A0C024086430020F04200200000FE2FD2
:205C600004C00008A0000020A1000020B4760008B477000810B50400200000F0CDFE0C20A2
:205C800020805120A070002060600020A060200010BD10B50400200000F0BEFE1020208091
:205CA0005220A070002060600020A0600020E060200010BD10B50400200000F0ADFE0C2065
:205CC00020805320A070002060600020A060200010BD10B50400200000F09EFE0920208076
:205CE000A520A070200010BD10B50400200000F093FE0A2020806120A070200010BD000030
:205D0000DFF890030068C0F30220704740B2002809D540B210F00F02DFF87C33D2180B01AE
:205D200002F8043C04E040B2DFF870230B018354704770B4030013F00704D4F10706052E15
:205D400001D3042001E0D4F10700261D072E01D2002500E0E51E012616FA00F0401E08407E
:205D6000A8400121A940491E1140084370BC704710B50400B4F1807F01D3012013E02002D3
:205D8000000A401EDFF8181308600F215FF0FF30FFF7BCFFDFF80C0300210160DFF8080388
:205DA00007210160002010BD00B583B001211C20FDF75AFD01208DF8040001208DF8060086
:205DC00001208DF8070002208DF805000420009000A9DFF8D802FDF795FD0820009000A975
:205DE000B248FDF78FFDB2485FF0FF31016000208DF8050001208DF8040000208DF807004F
:205E000001208DF806004FF44070009000A9A948FDF778FD00208DF8050001208DF80400FC
:205E200000208DF8070000208DF806004FF48060009000A99F48FDF765FD01208DF80500C7
:205E400000208DF8040000208DF807000120009000A99948FDF756FD07BD80B54FF4A0602F
:205E6000FEF706FE01BD00B585B00420FEF73AFE00A8FDF779FC01984FF47A71B0FBF1F0CC
:205E8000FFF776FFFFF73CFF00220121FFF751FF01005FF0FF30FFF739FF05B000BD8248F3
:205EA0000068400840008049086070472DE9F0410400E4B22009C0B20500E4B214F00F00E0
:205EC000060070194FF4FA7148437C4908607C49086068007B4908607B480068002806D0E3
:205EE00079480068FBF71AFE77480021016077480068002806D075480068FBF70FFE73482A
:205F0000002101606F4800688000FBF709FE6E4908606C4800688000FBF702FE6B4908609E
:205F20000020804600200700AF4220DA66480068012140F82810654800684FF4FA7101FB02
:205F400007F140F828106048006810EB8800002141605E48006810EB88005C49096851F894
:205F60002810C831416018F102087F1CDCE770005749086057480068002806D0554800685C
:205F8000FBF7CCFD53480021016053480068002806D051480068FBF7C1FD4F48002101605E
:205FA0004B4800688000FBF7BBFD4A490860484800688000FBF7B4FD4749086000208046C8
:205FC0002F007019874220DA42480068012140F82810414800684FF4FA7101FB07F140F8F7
:205FE00028103C48006810EB8800002141603A48006810EB88003849096851F82810C8315F
:20600000416018F102087F1CDBE7BDE8F08180B52B48002101602B48002101602A48006860
:20602000002806D028480068FBF778FD26480021016026480068002806D024480068FBF799
:206040006DFD2248002101601C48002101602048002101601F480068002806D01D48006880
:20606000FBF75CFD1B48002101601B480068002806D019480068FBF751FD1748002101603D
:2060800016484FF48071018014484FF40071018001BD00000CED00E018ED00E000E400E01C
:2060A00014E000E018E000E010E000E00010024014100240000C0240000802403843002079
:2060C00028430020344300202C43002030430020444300203C43002040430020180C02402D
:2060E00010B50400200000F097FC062020806020A070200010BD0000DFF8900100680028F9
:2061000009D5DFF88C01DFF88C110160DFF88001DFF8841101607047DFF87001006850F09C
:206120000040DFF8681108607047F8B504000D0000260827EDB2002D02D10020060010E0E8
:20614000EDB2012D03D14FF48070060009E0EDB2022D03D14FF40070060002E04FF440704C
:20616000060000F09DF80700FFB2082F3AD1DFF81C01006830F44070DFF810110860DFF833
:206180000C0100683043DFF804110860DFF8FC00006830F0F800DFF8F4100860DFF8EC006A
:2061A000006854F002010843DFF8E0100860DFF8DC00006850F48030DFF8D010086000F098
:2061C0006FF80700DFF8C400006830F00200DFF8BC100860DFF8B400006830F0F800DFF83F
:2061E000AC1008603800C0B2F2BD70B504000D00082600F055F80600F6B2082E1CD1234845
:20620000006830F4407021490860204800684FF4007108431D4908601C48006850F00100C6
:206220001A490860256000F03BF806001748006840084000154908603000C0B270BD1749A1
:2062400008607047082015490968C90302D50121080018E011490968C90602D505210800C4
:2062600011E00E49096811F0EF01002902D00621080008E009490968890702D50721080008
:2062800001E008210800C0B270470000103C0240043C024023016745AB89EFCD0C3C024069
:2062A00080B508208DF80000FFF7CCFF8DF800009DF80000012804D1FFF7C4FF8DF80000E5
:2062C000F6E79DF8000002BD00B589B001210220FDF7CAFA01211020FDF7F3FA0722062120
:2062E000DFF84804FDF76FFB07220721DFF83C04FDF769FB00A8FDF75AFB02208DF80500C0
:2063000002208DF804004020009000A9DFF81C04FDF7F8FA02208DF8050002208DF8040005
:206320008020009000A9DFF80404FDF7EBFA02A800F006FC5FF4612002900020ADF80C00F9
:206340000020ADF80E000020ADF810000020ADF814000C20ADF8120002A9DFF8D40300F090
:2063600071FB06A800F00BFC06A9DFF8C40300F0F5FB02A9DFF8B80300F064FB012280218F
:20638000DFF8AC0300F012FC01224021DFF8A00300F00CFC0121DFF8980300F0F9FB09B052
:2063A00000BD00B591B042F21070019001215FF48000FDF759FADFF87C0300F019FCDFF877
:2063C000740300F0F2FC002804D00198411E01910028F4D15FF000600290DFF85C030390EB
:2063E000DFF858030490402005904FF480600690002007904FF480600890002009900020DE
:206400000A9000200B905FF400300C9000200D9003200E9000200F900020109002A9DFF889
:20642000140300F086FC01221021DFF8080300F0C8FC46208DF8000000208DF80100002038
:206440008DF8020001208DF8030000A8FEF715FB11B000BD00B591B042F210700090012185
:206460005FF48000FDF700FAB54800F0C1FBB44800F09BFC002804D00098411E0091002883
:20648000F5D15FF000600190AB480290AD480390002004904FF480600590002006904FF484
:2064A00080600790002008900020099000200A905FF400300B9000200C9003200D90002080
:2064C0000E9000200F9001A99D4800F032FC01219B4800F05AFC11B000BD80B5FFF7F4FECC
:2064E000FFF75FFFFFF7B6FF01BD10B504009648007800280DD194480121017000218D4855
:2065000000F043FC9148A4B204600121894800F03CFC10BD10B590B004000021884800F0E7
:2065200034FC874800F064FB5FF000600090824801908448029000200390A4B20494002054
:2065400005904FF4806006900020079000200890002009905FF400300A9000200B900320CA
:206560000C9000200D9000200E9000A9744800F0E0FB0121724800F008FC10B010BD38B58A
:2065800004000D0040F20140ADB2854202D34FF48065FFE72A0092B268492000FBF71AFA29
:2065A000280080B2FFF7A1FF2800C0B232BD704767490860704738B5002400256548007881
:2065C00000280DD14FF48071594800F0FAFA012806D16048012101705F486049096801609F
:2065E0005C480078002810D05C4800685A490968401AC92808D34FF480714D4800F0F1FA8D
:2066000054480021017000E073E04948008800070DD55348002101705248052101600020A9
:206620000500514908604FF48060FFF773FF444800F0B8FBD0F5806005004B480068281AB2
:2066400004004948056049480078002808D1022D06D347483B49098801604448012101700A
:20666000002C06D03E48012101703E48052101603FE03B48007800283BD03D480068A842CE
:2066800006D038480068401E36490860002830D137480068A84204D136483549096801605A
:2066A00006E0274800F07EFBD0F580603149086030480068B0F5806F06D22E480168214801
:2066C000234A1268904703E02A484FF480610160234800210170234805210160002005000E
:2066E000214908602148002101704FF48060FFF711FF31BD80B52049114800F084FB002828
:2067000003D01D490E4800F0AFFB01BD80B51B49084800F078FB002806D01849054800F0AA
:20672000A3FB09480021017001BD00000004024000100140B864024004100140502600203A
:2067400040640240502200207F430020BC6402407C000020814300202043002024430020F3
:2067600080430020800000201C4300208243002084000020184300200080201000800028BB
:2067800038B504000D002A0092B221004FF6FF7000F001F832BD70B4030018000026350046
:2067A000ADB292B2954216D2ADB26E5C704000263400E4B2082C0CD2C60706D580B240087A
:2067C00080F4204090F0010001E080B24008641CEFE76D1CE4E780B270BC704700B589B05C
:2067E00001210420FDF740F801215FF48020FDF759F807220A218048FDF7E5F807220B218B
:206800007D48FDF7E0F800A8FDF7D1F802208DF8050002208DF804004FF48060009000A9CF
:206820007548FDF76FF802208DF8050002208DF804004FF40060009000A96F48FDF762F808
:2068400002A800F07DF94FF4964002900020ADF80C000020ADF80E000020ADF810000020E4
:20686000ADF814000C20ADF8120002A9634800F0E9F806A800F083F906A9604800F06EF98D
:2068800002A95E4800F0DEF8012280215B4800F08DF90121594800F07BF909B000BD00B5B2
:2068A00091B001215FF40010FCF7DEFF544800F09FF9534800F079FA0028FAD15FF000607E
:2068C00001905048029050480390402004904FF480600590002006904FF480600790002096
:2068E00008900020099000200A905FF400300B9000200C9003200D9000200E9000200F9076
:2069000001A93F4800F015FA012210213C4800F058FA0E208DF8000000208DF801000020B4
