:020000040800F2
:2000000060ED002061A50008D1A00008D3A00008D5A00008D7A00008D9A0000800000000F4
:20002000000000000000000000000000DBA00008DDA0000800000000DFA00008E1A00008A8
:20004000E1A5000899A10008E9A50008EDA50008F1A50008F5A50008F9A50008FDA5000810
:2000600001A6000805A6000809A600080DA6000811A6000815A60008997400081DA600084A
:2000800021A6000825A6000829A600082DA6000831A6000835A6000839A600083DA6000878
:2000A00041A6000845A6000849A600084DA6000851A6000855A6000859A600085DA6000858
:2000C00061A6000865A6000869A600086DA6000871A6000875A6000879A600087DA6000838
:2000E00081A6000885A6000889A600088DA6000891A6000895A6000899A600089DA6000818
:20010000A1A60008A5A60008A9A60008ADA60008B1A60008B5A60008B9A60008BDA60008F7
:20012000C1A60008C5A60008B5710008CDA60008D1A60008D5A60008D9A60008DDA6000820
:20014000E1A60008E5A60008E9A60008A3A10008F1A60008F5A60008CD710008FDA6000867
:2001600001A7000805A7000809A700080DA7000811A7000815A7000819A700081DA700088F
:2001800021A7000825A7000810B50400200000F034F810BD10B50400002C05D0200000F00F
:2001A0003BF8200001F032FC10BD10B50400200000F032F810BD0100002089B2022903D3D3
:2001C00089B24908401CF8E7C0B2704710B5040020220021200001F044FC43F68130208226
:2001E0004FF4C040E08143F68130608243F6813020834FF4C040E08210BD10B50400DFF8F0
:20020000200B206010220021201D01F02AFC200000F003F8200010BD7047002282760022A1
:200220000276002242760822C276FF2202770022C283002280F82020002280F82120002232
:20024000428400224262002282620022C2620022026300228286002282630022C2635FF078
:20026000FF3202645FF0FF324264002280F84920002280F8482000221100022906DA10EB83
:20028000C1025FF0FF335360491CF6E770470300C9B2022907D2C9B213EBC10082609868D0
:2002A0005861012000E000207047C9B210EBC10080687047F8B504000D001600EDB214EB65
:2002C000C5008268310020002368DB68984707004FF40070BFB2874203D1EDB214EBC50046
:2002E0004660380080B2F2BDF8B504000D00EDB214EBC5008268EDB214EBC5004168200008
:2003000023681B699847060000200700BFB2022F11D2EDB214EBC5004068BFB214EBC701FA
:200320004968884205D1BFB214EBC7005FF0FF3141607F1CEAE7300080B2F2BD2DE9F84347
:2003400004000D0016003100C9B22000FFF7ADFF8146B9F1000F05D1DFF8200C23210170FA
:2003600000201FE02900200000F00EFC80464FF40072FF21484601F074FB00200700E08B00
:20038000BFB2874208D24A4618FA87F1200023681B6998477F1CF2E7F6B214EBC600C0F888
:2003A00004800120BDE8F28310B50400A06A421C00212000FFF77EFF4FF40071884201D248
:2003C00000201EE060690068DFF8381C884217D16069D0F8E401DFF8301C884210D16069E4
:2003E000D0F8FC01DFF8241C884209D16069216CC0F8EC11A06A421C0021200000F002F8DF
:20040000012010BD70B504000D001600EDB214EBC5004660EDB214EBC500826831002000FB
:2004200023681B69984770BD0200C9B2002901D1002016E0C9B20B290BD0C9B20C2908D001
:20044000C9B20E2905D0C9B2042902D0C9B2062901D1012005E0C9B2072901D1002000E09C
:20046000002070472DE9FC4104000D00002600A8DFF89C1B0CC90CC0083908380027042F69
:2004800050DA002600A830F817004019407900A931F8171049194978884200D2761E00A81F
:2004A00030F817004019807910F03F0000A931F817104919897811F03F01884200DA761E97
:2004C00000A830F817004019C0884FF6C071084000A931F81710491949884FF6C0721140E2
:2004E000884200DA761E00A830F81700401990F804804146C9B22000FFF796FF002804D0CF
:20050000761D2878EB2801D103E009E02878E92801D1F61E00E0761C012E01DB012002E0E0
:200520007F1CACE70020BDE8F681F8B5040000212000FFF7BAFE07002000FFF76EFE002FF9
:2005400001D1002065E0002200212000FFF7B2FE4FF40071884201D200205AE097F8FE0122
:20056000552803D197F8FF01AA2801D0002050E039002000FFF776FF002809D10020A062C0
:20058000F88A002801D1012000E00020607617E04FF4DF700500B5F5FF7F11DAE81980685E
:2005A000A062E81900790600A06A002806D03100C9B22000FFF738FF002801D11035EAE7A8
:2005C000A06A002811D0A26A00212000FFF772FE4FF40071884201D200201AE0F88A002840
:2005E00001D1012000E000206076200000F012F8002801D100200CE0200000F065F800287D
:2006000001D1002005E0200000F09CF80120A0760120F2BD2DE9F041040000212000FFF7D6
:2006200044FE8046607E002804D00720E0767F20207703E00820E076FF20207798F80D0071
:20064000E083E08BFFF7B7FD84F8200094F82000093084F82100B8F816000500607E002833
:2006600002D1ADB2002D02D1B8F82400050098F810000700B8F80E000600A06A10FA86F07A
:2006800060626584FFB2022F05D3606AADB210EB4500E06203E0606A10FA85F0E062D8F80C
:2006A0002000A063A06B002802D1D8F81300A063A06BE16A401AE063E06B94F82010C84029
:2006C000E0630120BDE8F0812DE9F041040000212000FFF7EAFD8046607E00281BD0D8F8B0
:2006E0002C0005002900200000F04EFA20630020A086102094F92010884007002E00310064
:20070000200000F04AFA0500A08E3818A086701C8542F3D013E0B8F81100A086E06A20631F
:20072000E06AA18E89B2090910FA81F0E062E06BA18E94F82020121D1141401AE0630120B1
:20074000BDE8F08110B50400607E002825D0A06A421C00212000FFF7ADFD4FF400718842F8
:2007600001D200201AE060690068DFF89818884213D16069D0F8E401DFF88C1888420CD18E
:200780006069D0F8FC01DFF8A818884205D16069D0F8EC012064012000E0002010BD407EE6
:2007A0007047427E002A0BD0022906D3C06B09010909884201D3012000E00020C0B209E058
:2007C000022905D34FF6F070814201D2012000E00020C0B27047010000200200D2B2082AB8
:2007E0000FD2D2B2DFF84C0850F83200884206D3D2B2DFF8400810EBC200007902E0521C23
:20080000ECE70020704710B40200B2F12003C9B20C002402A41CE018401EB0FBF4F080B21E
:2008200010BC70472DE9F04104000D0016001F002800FFF7D0FF30803188C9B22800FFF7B9
:20084000E2FF38804FF400720021606901F009F900208046A06A398810FA81F0398810FA76
:2008600081F04030804507D2424600212000FFF7C9FD18F10108EDE7BDE8F08138B5040087
:200880000D004FF400720021606901F0EAF86069332101706069C021417060698E21817087
:2008A0006069552180F8FE116069AA2180F8FF116069802180F8BE116069062180F8C2116A
:2008C0006069A16AC0F8C6116069C0F8CA51002200212000FFF796FD4FF40071884201D1DD
:2008E000012000E00020C0B232BD70B582B004000D000DF1020300AA2900200026683668EC
:20090000B047BDF80000002801D1002099E0A06A002803D029002000FFF7B0FF4FF40072F0
:200920000021606901F09DF86069EB21017060693C21417060699021817008226069C11CEF
:20094000DFF8F40601F07EF80522606910F13601DFF8E80601F076F860694FF40071A0F8FE
:200960000B10606910218173606902210174BDF80000812808D36069FF21417360694FF42B
:200980008051A0F8111008E06069BDF80010417360694FF40071A0F8111060690021A0F8EB
:2009A00013106069F82141756069BDF80210C18260693F2101766069FF2181766069A16A55
:2009C000C161606905626069802180F824106069292180F826106069DFF86416C0F82710E5
:2009E0006069002180F82B106069022180F82C106069DFF85016C0F8421060694AF655212B
:200A0000A0F8FE11B5F5803F05D26069A0F813506069002101622000FFF7FCFDA06A821D26
:200A200000212000FFF7EEFCA26A00212000FFF7E9FC4FF40071884201D1012000E00020FC
:200A4000C0B276BDF0B589B004000D0016002000FFF7E3FBA66229002000FFF746FF002844
:200A600001D1002073E02000FFF72EFE002801D100206CE0E06A281A94F82010C840070032
:200A8000781E6064032020646069DFF8781501606069DFF87415C0F8E4116069DFF86C15D0
:200AA000C0F8FC116069616CC0F8E8116069216CC0F8EC11A06AC21D00212000FFF7A2FC61
:200AC000A06A421C00212000FFF79CFC4FF40071884201D000203AE04FF4007200216069B7
:200AE00000F0BFFF60697FF00701016060694FF6FF718180626A00212000FFF783FC606ADC
:200B0000618C10FA81F200212000FFF77BFC00A8FFF75CFB08208DF80B00082200A9DFF866
:200B2000280500F08FFF2022616900A800F08AFF226B00212000FFF765FC4FF4007188423A
:200B400001D0002003E0002084F84900012009B0F0BD006B7047012190F9210011FA00F06C
:200B60007047C08B704710B4020092F8210031FA00F0012392F92140A3405B1E194200D099
:200B8000401C80B210BC704702008B1E180092F820309840D36A181870472DE9F843040056
:200BA000884600212000FFF780FB070041462000FFF7F7FD002801D1404629E0606A814603
:200BC000E07E38FA00F010EB09094A4600212000FFF770FB4FF40071884201D2002017E0EE
:200BE000607E002807D018F07F000500AD00ADB2E859060006E018F0FF0005006D00ADB27B
:200C0000E85B0600B04502D17FF0704000E03000BDE8F2832DE9F44F82B004000D001E00C0
:200C20005FF00009AA465FF0000BE07E35FA00F00700E07E17FA00F00090606AC719207F56
:200C4000284080463A0000212000FFF733FB4FF40071884201D2002060E0207F80B21FFA2C
:200C600088F8404532D3BDF808001FFA8BFB83452CD2009810FA88F08146E06B814504D37F
:200C8000BE4810210170002048E0414689B2200000F04EFF002816D11FFA8BFBBBF1000FDC
:200CA00004D1002E0CD0C6F8009009E0CA4507D04A46207F10EA0A0189B2200000F047FF73
:200CC0001BF1010BCA4618F10108C6E71FFA8BFBBBF1010F21D3BAF1000F1ED00C9800286A
:200CE00002D00C98C0F800A07FF07042207F10EA0A0189B2200000F02AFF00212000FFF7B6
:200D0000F3FA4FF40071884204D29C4804210170002003E0584680B200E00020BDE8FE8F13
:200D2000D8A300082DE9F64F83B004000025039E039F00200190002002905FF000085FF02D
:200D4000000ABDF810B0002E07D1216C2000FFF728FD002801D0206C060088480021017059
:200D60001FFA8BFBBBF1010F72D302A8009001AB5A4692B231002000FFF74CFF8046E07E53
:200D800036FA00F0814619F10100E17E884006001FFA88F8B8F1000F05D00198002802D07B
:200DA000029800281ED1754800780028D8D073480078102815D15FFA8AFABAF1000F10D1B4
:200DC000E07E36FA00F0E16BE27ED140491E884207D3022006006948002101700120824679
:200DE000BEE735E0002D01D101980500002F2AD0E07E37FA00F08146606A10EB09094A46C6
:200E000000212000FFF756FA4FF40071884203D25A48012101701BE00198B84213D0019AB7
:200E2000207F10EA070189B2200000F090FE00212000FFF759FA4FF40071884203D24F48C4
:200E40000421017004E0BBEB080B0298070087E71FFA8BFBBBF1010F03D2484800780028F0
:200E600008D02900200000F034F844481021017000202BE002982064606CBDF81010401AC3
:200E8000606494F84900401C84F8490094F84900FB2803D3200021688969884794F848008C
:200EA000002812D02E0031002000FFF77AFC00280BD001223100200023685B699847310067
:200EC0002000FFF76AFE0600EDE7280005B0BDE8F08F2DE9F04704000D0000260027A84620
:200EE0005FF0010A25480021017041462000FFF758FC002832D0E07E38FA00F00600606A2E
:200F00008619BE4219D0002F03D000212000FFF7EBF9320000212000FFF7CCF937005FFA6E
:200F20008AFABAF1000F06D014480078002802D15FF0010A01E05FF0000A207F10EA080099
:200F40008146494689B2200000F0F2FD80460022494689B2200000F0FAFDC6E7002F03D099
:200F600000212000FFF7C0F9606C50FA8AF060645FFA8AFA504680B2BDE8F0874F4D0020B0
:200F80002DE9F04704000D0016001F0029002000FFF707FC002805D1DFF8A4072121017049
:200FA00000202CE03100C9B22000FFF77EF98246BAF1000F05D1DFF888072221017000203A
:200FC0001DE04FF400723900C9B2504600F049FD29002000FFF7D8FD814600208046E08BB3
:200FE0001FFA88F8804509D219FA88F23100C9B22000FFF707FA18F10108F0E70120BDE8B9
:20100000F08700005252614172724161000055AA90A5000810B50400442000F0A5FD00286A
:2010200004D00022210000F011F800E0002010BD000055AA4800002070A5000888A500081A
:20104000785634122951D6AE98A5000870B504000D0016002560002060613100200000F046
:201060004CF8200070BD10B504006069002804D0606900F08BFD00206061200010BDF8B595
:20108000040000206062206A05002068FFF763FD07007F090020207629002068FFF781FB95
:2010A00000280CD0207E401C2076606A10FA87F0606229002068FFF770FD0500ECE7207E05
:2010C000800000F065FD6061206A05000020060029002068FFF765FB00280DD0F6B260694B
:2010E00040F8265029002068FFF757FD0500761C207EF6B28642EBD3F1BD38B504000D0038
:201100000020E06125620020606200202076002020716069002802D0606900F037FD0020CE
:201120006061002D06D12068FFF739FB002801D002200500022D14D3256229002068FFF7D4
:2011400023FDE0612000FFF79AFF022D06D12068FFF725FB002801D0012000E000206076EB
:201160000AE0012060762068FFF7F3FCE061002020622068808E6062607E002802D00120ED
:20118000A06201E00220A062200000F003FD31BDF8B504000D002900200000F0FEFC060053
:2011A0003100200000F0FDFC06002068006B864201D2002007E02900200000F01BFD070002
:2011C000780150EA4620F2BD2DE9F84F04000D0016001F00A06A854202D3606A854201D399
:2011E000002052E000AA2900200000F008FD82462900200000F0D1FC8346FFB2002F25D049
:201200009DF800008046B8F1100F3DDA1AEB4810814699F80000002803D10120A07600208C
:2012200033E04946200000F00FFD00280BD020223100484600F006FC4246D2B2594620002F
:2012400000F06BFD21E018F10108DCE79DF800008046B8F1000F17D41AEB481081464946AF
:20126000200000F0F1FC00280BD020223100484600F0E8FB4246D2B25946200000F04DFD95
:2012800003E0B8F10108E4E70020BDE8F28F38B504000D00002020710120A0762A00A06A8E
:2012A000411E200000F001F832BD2DE9F84304000D001600A06A401E854202D2A06A401EF4
:2012C00005000020A07601233200691C2000FFF77BFF0700002F02D1A07E002801D0380010
:2012E00022E0691C200000F058FC804618F101008146606AB9EB101F15D200224946200017
:2013000000F00BFD0123320001002000FFF75CFF0700002F02D1A07E002801D0380003E0D2
:2013200019F10109E5E70020BDE8F2832DE9F04104000D0016001F00DDF8188000202071E8
:20134000002D0FD0207950F001002071A673A07B092801D30820A073A27B92B2A11D28005B
:2013600000F070FB002F09D0207950F002002071032214F10F01380000F064FB4246A06A4B
:20138000411E2000FFF791FFBDE8F0812DE9F04190B004000D0016001F000822202101A851
:2013A00000F05FFBF6B2092E01D308200600F6B2320092B201A9280000F044FB03A8211DFA
:2013C0000E2200F0C1FC07A800903B00082201A92000FFF7ABFF8046201D03A90E2200F053
:2013E000B3FCB8F1000F01D0012000E00020C0B210B0BDE8F0812DE9F84F04000D001600C8
:201400005FF0010B00AA5946200000F0F8FB80465946200000F0C1FB82469DF80000070090
:20142000FFB2102F28D2FFB218EB4710814699F80000002806D0F6B2002E19D099F8000011
:20144000E52815D120224946280000F0FBFA01212068FEF749FF4FF40071884206D13A0045
:20146000D2B25146200000F058FC09E0002007E01BF1010B7F1CD3E7606A8345C2D3002049
:20148000BDE8F28F2DE9F84304000D00002229002000FFF7B0FF8146B9F1000F01D04846D5
:2014A00052E0200000F076FB012229002000FFF7A2FF8146B9F1000F01D0484644E06069AA
:2014C000002840D0207E01283DD3207E616911EB800050F8040C0600012231002068FFF7E9
:2014E00021FC06000023012231002068FFF748FD002E28D060698046207E401C800000F070
:2015000047FB6061207E80B2820092B26169404600F098FA207E616941F82060207E401C45
:201520002076404600F032FB2068FFF71AFB0700606ABFB210EB071060620022290020005E
:20154000FFF759FF81464846BDE8F283F8B504000D0000AA2900200000F051FB0700002FAB
:2015600013D09DF8000017EB40100600E520307001212068FEF7B8FE4FF40071884201D151
:20158000012000E00020C0B200E00020F2BD2DE9F0418EB004000D0016001F0001A8211D57
:2015A0000E2200F0D1FB05A800903B003200D2B229002000FFF7BAFE8046201D01A90E223D
:2015C00000F0C2FBB8F1000F11D041462000FFF7DFFD8046202000F0C7FA002805D005ABE8
:2015E0004246216800F00FF900E0002000E000200EB0BDE8F0812DE9F04F89B005000E006D
:2016000017009846139C5FF0000AE4B2002C07D143463A00D2B231002800FFF7B8FF8BE07B
:2016200043463A00D2B231002800FFF7AFFE00281CD0E4B2012C07D143463A00D2B2310040
:201640002800FFF7A4FF77E0E4B2022C04D13C481121017000206FE0E4B2032C06D143461E
:201660003A00D2B23100280000F06CF801A8FEF7ADFDFFB2092F01D3082007000822202160
:2016800001A800F0EEF9FFB23A0092B201A9300000F0D8F9032203A9404600F0D3F90321C9
:2016A00003A800F027FA12980890129800281BD012992868FFF757FAADF80000BDF8002073
:2016C00000212868FFF72EFB8246BAF1000F04D11B481021017000202EE05046ADF81E0057
:2016E0005FEA1A40ADF8180001A92800FFF7CAFE8146B9F1000F14D049462800FFF748FDA4
:201700008146202000F030FA002806D001AB4A46296800F078F8834601E05FF0000B5846DB
:201720000AE0BAF1000F03D051462868FFF7D1FB034816210170002009B0BDE8F08F000059
:201740004F4D00202DE9F0438DB004000D0016001F0001A8211D0E2200F0F6FA05A80090CD
:201760003B003200D2B229002000FFF7DFFD8046201D01A90E2200F0E7FAB8F1000F1FD008
:2017800041462000FFF7E2FE002801D1002018E02068FFF704F8002809D0BDF8280081469B
:2017A0005FEA0949BDF82E0050EA090902E0BDF82E00814649462068FFF78BFBC0B200E0EE
:2017C00000200DB0BDE8F08370B588B004000D00160000AA2900200000F0F1FA00280FD0BB
:2017E0000322202102A800F03CF9032202A9300000F028F900AA2900200000F0FEFA00E0E8
:20180000002008B070BDF8B504000D0016001F0025600020A06066603900200000F009F81B
:201820002000F2BD10B50400200000F01CF8200010BD38B504000D00E869A0602068FEF733
:20184000AEFF002809D0A88AE060E0680004E060E068698B0843E06001E0688BE0602000E1
:2018600000F002F831BD704710B5040000202061E068606161692068FFF786F9A06100207E
:20188000A08310BDF8B504000D002069A16888421AD2A0682169401A0600B6F5007F02D95B
:2018A0004FF4007006002A00A169206823681B68DB6898470700BFB2BE4202D3380080B2CC
:2018C00003E0300080B200E00020F2BDF8B504000D0016002069470ABD420AD3AF4211D2B6
:2018E000200000F05FF8002801D100200EE07F1CF4E700226902200000F01DF8002801D157
:20190000002003E031002000FFF7BCFFF2BD38B504000D00E06800280BD02069A16888426E
:2019200007D22A00A169206823681B681B69984700E0002032BD2DE9F04104000D00160044
:20194000F6B2002E2BD1680A80465FEA48202061E06860612068FFF704F90700BFB2B84552
:201960000FD3BFB2B8EB070861692068FFF715F9606161692068FEF714FF0028EED10020EA
:201980000EE0A4F81C8061692068FFF7FDF8A061A069A18B10FA81F0A061012000E0002011
:2019A000BDE8F08138B50400A069401CA061A08B401CA0832068FFF7D4F8A18B814214D3F0
:2019C0000020A08361692068FFF7E7F8050029002068FEF7E6FE002801D100200AE0656144
:2019E00061692068FFF7D0F8A061206900F200202061012032BD01698068814201D30120A0
:201A000000E00020C0B2704780687047002818BF00F01CBA704710B450F8041B81B10268BB
:201A20001218001D50F8043BDC0744BFA9F10104E31852F8044B43F8044B091FF9D1EBE771
:201A400010BC704710B4002423009BB292B2934205D29BB29BB21C5C5C545B1CF5E710BCDA
:201A6000704710B4002423009BB292B2934203D29BB219545B1CF7E710BC704730B40300F0
:201A800000200400A4B292B2944209D2A4B2E05CA4B2655CA84201D0002002E0641CF1E719
:201AA000012030BC704770B4030000200400A4B292B294421BD2A4B2E05C0500A4B2605C11
:201AC0000600EDB2612D03D3EDB27B2D00D2203DF6B2612E03D3F6B27B2E00D2203EEDB25A
:201AE000F6B2B54201D0002002E0641CDFE7012070BC704710B402000020002423000C00F1
:201B0000E4B29BB2A4B2A3420FD29BB29C5C612C09D39BB29C5C7B2C05D29BB29C5C203CB4
:201B20009BB29C54401C5B1CE9E7C0B210BC7047427E002A06D089B2406950F821000001C2
:201B4000000903E089B2406930F811007047437E002B04D089B2436943F8212003E089B284
:201B6000436923F81120704710B5044601E000F0B1F9204600F0B0F928B903480068010098
:201B8000F5D08047F5E710BD3C4D0020FFF73EBFFFF7EABF0021817670470200481E000995
:201BA00070472DE9F04104000D00606900281DD0206890F8200035FA00F00700207E87427B
:201BC00001D3002014E0606950F82700060031002068FEF7D9FF80462068FEF7C2FF07FB53
:201BE0001050050015EB0808404601E0E0692818BDE8F0810200481E10F00F0070472DE926
:201C0000F04104000D00160029002000FFF7C5FF070039002000FFF7C4FF80462068006B97
:201C2000804501D200200DE029002000FFF7E2FF3070424601212068FEF73CFB0121206837
:201C4000FEF733FBBDE8F08170B504000D002878E5280AD02878002807D0E87A10F0070086
:201C6000072802D0E87A000701D5002054E02079000704D5E87AC0060AD501204CE020796A
:201C8000400705D5E87A1821084201D0002043E0207910F030000600F6B2012E20D3F6B2E9
:201CA000102E04D1E87A61790840060013E0F6B2202E04D1E87A6179084306000BE0F6B2A9
:201CC000302E08D1E87A61790843C0B2002801D1012600E00026F6B2002E01D100201BE0EA
:201CE0002079C00709D5A27B92B22900A01DFFF7DAFE002801D100200EE0207980070AD58A
:201D0000032215F1080114F10F00FFF7CCFE002801D1002000E0012070BD0300D2B2501C80
:201D200010EB0110704750F8041B61B150F8042BD30744BFA9F101039A18002342F8043B27
:201D4000091FFAD1EFE7704762B38B0708D0521E11F8013B00F8013B00F024808B07F6D1AE
:201D6000830740F0208000BF103A07D330B4B1E83810103AA0E83810F9D230BC530724BF53
:201D8000B1E80810A0E8081044BF51F8043B40F8043BD20724BF31F8022B20F8022B44BF96
:201DA0000B7803707047083A07D3B1E80810083A40F8043B40F804CBF7D25307E4E72DE9E5
:201DC000F04182B004000D00160000AA29002000FFF715FF8046B8F1000F0BD09DF800008E
:201DE00018EB40100700202231003800FFF72AFE012000E00020BDE8F6812DE9F04182B00A
:201E000004000D00160000AA29002000FFF7F7FE8046B8F1000F16D09DF8000018EB401071
:201E20000700202239003000FFF70CFE01212068FEF75AFA4FF40071884201D1012000E0AC
:201E40000020C0B200E00020BDE8F68100B9704710B5A0F108042068082837D310F0070039
:201E600034D1012000F0B0F81948416809B18C4203D26160446017E019464B680BB1A3422E
:201E8000FAD30A6853189C421BD3A34204D123689A180A600C4607E04A681AB123681B19F6
:201EA0009A420ED362604C60616851B1226813198B4206D100230360086880182060486814
:201EC00060600120BDE8104000F0A2B810BD0000B84C002000F0A8B870B5054605F10F002C
:201EE000C408E400012000F06FF8A5422BD2082C04D2082402E00830FFF7A8FF244D2868E8
:201F000001000CD1291D0868B8B10268A24238BF011DF8D316E01368A34213D2111D0A68BB
:201F2000002AF8D10068291D00E0111D0A68824203D01368A342F8D304E000F079F8002851
:201F4000D9D1002121B9012000F062F8002070BD0E683068A0F10802A2423CBF706808605C
:201F600007D3A2190A6073685360001B0A6810603460086800281DBF41680029001D0020C0
:201F80002860012000F044F806F1080070BD0000B84C002010B5234C2068A0B1201D00F0E2
:201FA0005CF804F1080000F058F804F10C0000F054F804F1100000F050F804F11400BDE868
:201FC000104000F04AB810BD38B50446154D286890B9281D00F040F805F1080000F03CF8F1
:201FE00005F10C0000F038F805F1100000F034F805F1140000F030F801202860052C06D2C9
:2020000005EB8400001DBDE8324000F027B831BD052805D2034901EB8000001D00F01FB8BB
:2020200070470000484C0020012000F019B800000649086808B10020704705480860054901
:20204000C908C900091A0160704700BF404D0020604D002060AD0020704770477047704769
:2020600080B5C046C046024A11001820ABBEFBE726000200DFF8800C00680100B1F5806FB6
:2020800019DADFF8780C085C000612D5DFF8700C008888420DD0DFF8640C085C10F07F00F5
:2020A000DFF8582C8854DFF8500C0160080080B224E0491CE2E701200100DFF83C0C006840
:2020C000814219DADFF8340C085C000612D5DFF8300C008888420DD0DFF8200C085C10F039
:2020E0007F00DFF8182C8854DFF80C0C0160080080B203E0491CE0E74FF6FF70704730B581
:2021000085B00400A4B2B4F5806F01D300201DE0A4B2200001F07DFAA4B22500AD0100A9F7
:20212000280001F054FABDF800004FF6FF7188420BD1A4B2DFF8C40B205C50F08000A4B29A
:20214000DFF8B81B6054012000E0002005B030BD2DE9F84304000D0000200600042E45DA85
:2021600000200700402F3FDA4020DFF8981B00FB0610385C002835D0DFF88C0B804618EBBD
:202180008608B8F8000081464FF6FF701FFA89F981450ED1FFF76EFF81464FF6FF701FFA4F
:2021A00089F9814503D100BF5FF0FF3020E0A8F800904FF48070DFF8AC1C00FB061040F87B
:2021C00027404020DFF83C1B00FB0610002139548020DFF8941C00FB061020F8175057EA53
:2021E000861005E07F1CBDE7761CB7E75FF0FF30BDE8F283F8B504000D006888060040F277
:20220000FB30B6B2864203D300BF7FF0020043E0B6B2DFF8EC0A30F826004FF6FF71884238
:202220002DD06889B6B2DFF8D81A11EB8601498888421ED06889B6B2DFF8C41A11EB8601E2
:202240004988401A80B2B0F5E04F12D2B6B2DFF8B00A30F826000700B6B2DFF8A40A20F816
:202260002640B6B2DFF8980A10EB86006989418000E02700380080B2FFF741FF0BE0B6B2E9
:20228000DFF87C0A20F82640B6B2DFF8740A10EB8600698941800120F2BD00002DE9F04359
:2022A00085B004000D00A4B2A1465FEA891900A919F13F0001F08BF99DF80800FF2805D0B0
:2022C0002900200080B2FFF795FF50E0DFF89C0B00884FF6FF71884203D000BF7FF004003F
:2022E00045E06868804668880700DFF8840B0021016001200600B6B2402E2AD200A9B6B23A
:2023000056EA090001F063F9BDF80200BFB2B8420AD10198B6B256EA0801884204D1DFF86A
:20232000500BB6B2066012E09DF80800FF2804D1DFF8C409A4B204600BE09DF808000028DB
:2023400005D12900200080B2FFF754FF0FE0761CD1E76888DFF8141B0880DFF8A409A0F810
:20236000FC4FDFF89C096989A0F8FE1F012005B0BDE8F0832DE9FF4104000D00DFF86C0D4A
:202380000068042803DB00BF7FF0050052E0DFF878098046DFF8540D006818EB8008A8F87D
:2023A00000406889A8F80200A4B22700BF0100200600B6B2402E35D200A9B6B256EA0700B2
:2023C00001F005F9019810F1010F04D1DFF82809A4B2046024E0B6B2DFF8100D00684FF4C2
:2023E0008071DFF8802A01FB0020019940F82610B6B2DFF8F80C00688021DFF86C2A01FB92
:202400000020BDF80A1020F81610B6B2DFF8DC0C00684021DFF8EC2801FB002000213154F2
:20242000761CC6E7DFF8C40C0068401CDFF8BC1C0860012004B0BDE8F0812DE9FF47DFF8BD
:202440002C0A008840F2FB31884211D2DFF8B008B0F8FC0FB0F5806F0AD2DFF8100A008888
:20246000DFF89C1831F820004FF6FF7188420FD1DFF8FC095FF0FF310160DFF8F0094FF658
:20248000FF710180DFF878084FF6FF71A0F8FC1F00200400042C6EDA00200500402D68DA1C
:2024A0004FF48070DFF8BC1900FB041050F825008009060040F2FB30864202D35FF0010ADE
:2024C00001E05FF0000A5FFA8AFABAF1000F36D1DFF82C0830F8260080465FEA88184FF4D9
:2024E0008070DFF8801900FB041050F82500070017F03F00814658EA090900A9484601F070
:2025000066F80198B8421AD1BDF80A008021DFF8382B01FB042131F8151088420FD0BDF878
:202520000A008021DFF8202B01FB042131F81510401A80B2B0F5E04F01D2012082465FFAEA
:202540008AFABAF1000F12D04FF48070DFF8141900FB04105FF0FF3140F825108020DFF8B2
:20256000E81A00FB04104FF6FF7120F815106D1C94E7641C8EE7012004B0BDE8F0871FB59A
:2025800001F0CAF800200400B4F5806F3CD200A9A00101F01CF8BDF800004FF6FF7188423B
:2025A0000BD0DFF8580700212154DFF8040D0068401CDFF8FC1C086024E0BDF802004FF671
:2025C000FF7188421ED0DFF83407205C10F07F00DFF8281760549DF80800F82807D0FE2842
:2025E0000BD100A9200080B2FFF758FE0AE000A9200080B2FFF7BEFE04E000A9200080B242
:20260000FFF7F8FD641CBFE7FFF717FF04B010BD2DE9F04104000D001600A009070014F0FA
:202620003F0080461FFA88F8B8F1000F0BD100220021002000F0B4F8320092B229002000AA
:2026400000F055F831E0DFF86C0C0088BFB2874229D11FFA88F8DFF8600C0068401C8045BC
:2026600006D1320092B22900200000F040F81CE0DFF8440C00681FFA88F8404508D23200E7
:2026800092B229001FFA88F8404600F089F80CE0320092B229001FFA88F8404600F080F82B
:2026A0005FF0FF3001E05FF0FF30BDE8F081000038B50400FFF7DEFC05004FF6FF70ADB24E
:2026C000854200D100BFDFF83806A0F8FC5FDFF830060021A0F8FE1FDFF894075FF0FF31C7
:2026E0000160DFF8D00B0480280080B232BD2DE9FF4704000D0016005FF01E09A009070051
:2027000014F03F008046DFF8F805B0F8FC0F82464FF6FF70824504D1380080B2FFF7C8FFEA
:2027200082464FF6FF70824502D15FF0FF3033E01FFA88F858EA8A1A2900504600F0C7FEFF
:202740004FF6FF70ADF80000ADF802700194ADF80A60FE208DF8080000F0C4FF03904846E6
:20276000B0F10109002805D000A9504600F00DFF4028F4D1DFF8400B1FFA88F8C0F8008056
:202780001FFA88F8B8F13F0F04D100220021002000F006F84FF4006004B0BDE8F087000010
:2027A0002DE9F14F86B00C0015005FF01E0BDFF8BC060088B0F5806F01D30020BFE0DFF8D5
:2027C0004005B0F8FC0F0090DFF8A0060088DFF8301531F820000700DFF8DC0A00683F2874
:2027E00018D1DFF888060088DFF81415009A21F82020DFF878060088DFF8041511EB8000C7
:20280000DFF8FC14B1F8FE1F4180380080B2FFF776FC82E0B8018046009880018146DFF8E0
:20282000980A0068401C0600402E62D20698864234D1002C32D0210056EA090000F047FE52
:20284000DFF8280600884FF6FF71884200D100BF4FF6FF70ADF80400DFF810060088ADF865
:202860000600DFF80806008856EA8010029000208DF80C00ADF80E5000F034FF04901E20DA
:2028800083465846B0F1010B002830D001A956EA090000F07AFE4028F3D128E0002256EA0B
:2028A000090156EA080000F0F4FE1E2083465846B0F1010B00281AD001A956EA080000F09E
:2028C00086FE82465FFA8AFABAF1400FEFD1ADF80E5000208DF80C0001A956EA090000F07E
:2028E00054FE82465FFA8AFABAF1400FDFD1761C9AE7DFF878050088DFF80414009A21F8A6
:202900002020DFF868050088DFF8F41311EB80004580380080B2FFF7F2FBDFF8E4034FF63C
:20292000FF71A0F8FC1FDFF844054FF6FF710180DFF884095FF0FF3101604FF4006007B080
:20294000BDE8F08FF0B4020089B292B24FF48070DFF8107500FB027050F82100030089B28B
:2029600092B28020DFF8E07600FB027030F81100040000200500042D59D200200600402E87
:2029800053D292B2954202D189B28E424BD04FF48070DFF8D07400FB057050F826009842F8
:2029A00041D18020DFF8A07600FB057030F81600A4B2A04224D08020DFF88C7600FB0570B5
:2029C00030F81600001B80B2B0F5E04F18D289B292B24FF48070DFF88C7400FB02705FF069
:2029E000FF3740F8217089B292B28020DFF8587600FB02704FF6FF7720F81170012017E03B
:202A00004FF48070DFF85C7400FB05705FF0FF3740F826708020DFF8307600FB05704FF647
:202A2000FF7720F81670761CA9E76D1CA3E70020F0BC704770B4010000245FF0FF300025DE
:202A40002A00042A35DA00252B00402B2FDA4FF48075DFF8106405FB026555F82350A942B6
:202A600023D110F1010F15D08025DFF8DC6505FB026535F81350A4B2A54216D08025DFF819
:202A8000C86505FB026535F813502D1BADB2B5F5E04F0AD253EA821528008025DFF8A86531
:202AA00005FB026535F813502C005B1CCDE7521CC7E770BC704730B4010000200200042A94
:202AC00018DA00200300402B12DA4FF48070DFF8EC5700FB025050F823008009040089B2BD
:202AE000A4B2A14202D153EA821005E05B1CEAE7521CE4E75FF0FF3030BC704710B40100AF
:202B000000200200042A21DA00200300402B1BDA4FF48070D34C00FB024050F8230081422A
:202B200010D14FF48070CF4C00FB02405FF0FF3440F823408020DFF8104500FB02400024DF
:202B400020F813405B1CE1E7521CDBE7012010BC704700002DE9F34F89B0FFF78BFA01905A
:202B600001984FF6FF71884203D100BF5FF0FF30BEE0BDF82800BDF824104FF48072B94B8F
:202B800002FB013151F82000029002988009040040F2FB30A4B2844203D300BF7FF0020065
:202BA000A6E0A4B2DFF8180730F82400ADF80000BDF80000002800D100BF029810F03F000C
:202BC000ADF802000298BDF80210401A049001988001039000200500402D71DABDF80200BE
:202BE00085420DD148488146BDF8240019EB8009B9F800008246BDF8280050EA8A1A2CE033
:202C000004982843FFF716FF82461AF1010F1FD05FEA9A1006001AF03F0007003A4881463E
:202C200019EB8609B9F80000824657EA8A1A4FF480708C4900FB06105FF0FF3140F827109C
:202C40008020894900FB0610002120F8171004E0BDF80000824655EA8A1A0022039855EA51
:202C60000001504600F015FD1E2083465846B0F1010B00281ED005A9504600F0A8FC8046B5
:202C80005FFA88F8B8F1400FF0D1ADF81640BDF81E00401CADF81E0000208DF81C0005A946
:202CA0000398284300F071FC80465FFA88F8B8F1400FDBD104982843FFF720FF6D1C8BE757
:202CC000A4B2DFF8FC05019920F8241005A90198800100F07CFCA4B2DFF8E40510EB84001B
:202CE000BDF81E104180BDF80000FFF708FA01200BB0BDE8F08F0000FC4C0020A83A002019
:202D0000FC000020A8480020E81000202DE9F04704000026A4B2042C01D300209FE0A4B2A9
:202D20004FF480704F4900FB04108046402E1ADAD8F8000010F1010F0DD0310089B2200047
:202D400080B2FFF7FFFD002805D1310089B2200080B2FFF7FFFE5FF0FF30C8F8000018F159
:202D60000408761CE2E7DFF85C058146A4B219EB8409B9F80000FFF7C2F9A4B2601CDFF8FB
:202D800048150860DFF840050068042803DBDFF838050021016000200600402E09DAA4B27D
:202DA0004020DFF8281500FB041001213154761CF3E7FFF75FF907004FF6FF70874207D1D3
:202DC00000BF4FF6FF70A9F800005FF0FF3046E0A9F8007000200500042D3FDAA4B2A5427E
:202DE0003AD00120824600200600402E0EDA4FF480701C4900FB051050F8260010F1010F3D
:202E000002D00020824601E0761CEEE75FFA8AFABAF1000F20D0DFF8AC04814619EB850949
:202E2000B9F80000FFF76BF94FF6FF70A9F8000000200600402E0FDA4020DFF8901400FBDF
:202E400005100121315480207F4900FB0510002120F81610761CEDE76D1CBDE70120BDE886
:202E6000F0870000A83E0020A8420020444D0020F84C00202DE9F64F87B00400BDF820004B
:202E800010F1010A5FF01E09A009ADF80400BDF80400FFF710FE10F1010F1DD114F03F005F
:202EA0000600BDF80400DFF80C140988884206D1DFF804040068B04201D31AF1010A52466F
:202EC00092B207992000FFF7A3FB0090009810F1010F01D000989AE0BDF820008246200081
:202EE000FFF7A8FD050015F1010F3FD0A809070015F03F0080461FFA88F8BFB28020524906
:202F000000FB071030F81800BDF82010401A612805DB414689B2380080B2FFF71BFE1FFA63
:202F200088F8BFB28020484900FB071030F818001FFA8AFA504519D01FFA88F8BFB2802058
:202F4000414900FB071030F81800B0EB0A0080B2B0F5E04F0AD21FFA88F8BFB280203A49E1
:202F600000FB071030F81800401C82461AF1010A514689B22000FFF7EBF8050015F1010FDF
:202F80000BD1DFF84403006880B2FFF7BFFE514689B22000FFF7DCF8050015F1010F03D13F
:202FA00000BF5FF0FF3032E0A809070015F03F008046DFF810038346BFB21BEB870BBBF891
:202FC00000001FFA88F858EA801006000799300000F07DFA4FF6FF70ADF808000020ADF823
:202FE0000A000394F8208DF81000ADF812A000F079FB05904846B0F10109002805D002A952
:20300000300000F0C2FA4028F4D14FF4006009B0BDE8F08F80B500F00AFAFFF7B0FA01BDA0
:2030200010B500200400B4F5806F09DAA848205C002803D0200080B2FFF761F8641CF2E7CB
:20304000FFF79DFA10BD0000A84200202DE9F0470400A009050014F03F00060040F2FB3067
:20306000ADB2854203D300BF7FF002003CE091480088ADB285420DD18F480068B6B2B0420A
:2030800008D38F48B0F8FC0F0700B6B256EA8710804628E02000FFF7CDFC8146B9F1FF0F59
:2030A00012D85FEA9910050019F03F00060085488246ADB21AEB850ABAF800000700B6B238
:2030C00056EA871080460EE0ADB27D4830F825000700B7F5806F02D37FF00B0004E0B6B2B7
:2030E00056EA871080464046BDE8F087F44C0020F0B585B004000D002000FFF7A7FF070083
:20310000002F18D4B7F5803F15DA2900380000F00DFA00F0E7FA060000A9380000F057FAE9
:203120000398B04204D0019810F1010F00D000BF4FF4006001E04FF4006005B0F0BD00006C
:203140002DE9F24F86B0040000208DF810005FF000095FF01E0AA009050014F03F00060063
:2031600040F2FB30ADB2854203D300BF7FF002009AE0ADB2524830F8250007004FF6FF704B
:20318000874221D1B6B2012E02D301208DF81000FEF770FF07004FF6FF70874203D100BFD7
:2031A0005FF0FF3080E0B6B256EA87108046ADB2434820F82570ADB2414810EB8500A0F895
:2031C00002900120834624E0B7F5806F03D300BF7FF0030068E0B6B256EA8710804600A9D7
:2031E000404600F0F4F9019810F1010F06D19DF80800FF2802D15FF0010B01E05FF0000BBE
:203200005FFA8BFBBBF1000F03D1BDF80A00401C81465FFA8BFBBBF1000F3FD00699404690
:2032200000F055F94FF6FF70ADF80000ADF80250019400208DF80800ADF80A9000F052FA43
:2032400003905046B0F1010A002805D000A9404600F09BF94028F4D1B6B2012E1BD39DF8A2
:203260001000002817D0B6B2A01B01900020ADF80A0000200390B6B2B8EB06081E208246DA
:203280005046B0F1010A002805D000A9404600F07CF94028F4D14FF4006005E04A4692B2D2
:2032A00006992000FFF7E6FD07B0BDE8F08F0000F04C0020444D0020F84C0020A83E002024
:2032C000FC000020E8100020004D0020A8480020A83A002000B583B00121182000F0E6FA29
:2032E00001214FF4804000F01DFB0121012000F0FBFA00A800F08FFB4DF6B30000900220AF
:203300008DF8050002208DF8040000208DF8060001208DF8070000A9DFF8DC0300F026FBB0
:203320000C220021DFF8D00300F085FB0C220121DFF8C40300F07FFB0C220421DFF8B803E7
:2033400000F079FB0C220521DFF8AC0300F073FB0C220721DFF8A00300F06DFB0C220B214F
:20336000DFF8940300F067FB0C220C21DFF8880300F061FB0C220E21DFF87C0300F05BFB8B
:203380000C220F21DFF8700300F055FB4FF4F060009002208DF8050002208DF804000020AB
:2033A0008DF8060001208DF8070000A9DFF84C0300F0DCFA0C220721DFF8400300F03BFBAA
:2033C0000C220821DFF8340300F035FB0C220921DFF8280300F02FFB0C220A21DFF81C03A5
:2033E00000F029FB4020009000208DF8040000208DF8070000A9DFF8000300F0B7FA082028
:20340000009001208DF8040000208DF8060001208DF8070002208DF8050000A9DFF8D80214
:2034200000F0A4FADFF8D8020821018007BD00B591B0FFF74FFF1020089000200990002004
:203440000A9040200B905FF4C0200C9000200D9000200E9001200490032005900220069068
:203460000120079004A80F900120009003200190022002900120039000A8109008A800F094
:2034800007FB0121102000F04DFB0121102000F071FB11B000BD10B40300080000218142C1
:2034A00005D25FF0E0442478CC54491CF7E710BC704730B4030008000021814205D2CC5C6E
:2034C0005FF0E0452C70491CF7E730BC704770B504000D0040268B48002101708948802183
:2034E000017089480021017087480021017086480470200A8449087084480068844908409D
:20350000824908608148006850F040007F49086001224FF400612800FFF7CBFF79481021F6
:20352000017000F087F80600300070BD70B504000D00402673480021017073480021017012
:2035400071480021017070480470200A6E4908706C4830210170322000F040FB6B4800688D
:203560006B490840694908606848006850F040006649086001224FF400612800FFF78BFF17
:2035800000F058F80600300070BD70B504000D0040265C48002101705A48802101705A4860
:2035A0000021017058480821017057480470200A55490870012210212800FFF77AFF514868
:2035C0001021017000F036F80600300070BD70B504000D0040264B48002101704A48002154
:2035E000017049480821017047480470200A46490870444830210170322000F0EFFA01225F
:2036000010212800FFF747FF00F014F80600300070BD10B50400A4013A48602101703A4852
:203620000470200A384908703648D021017000F001F810BD38B55FF08075402400F01DF8C3
:203640000400600606D4002D04D000F016F804006D1EF6E7002D02D14FF480600400E007AD
:2036600002D50120040006E0600602D54020040001E000200400200032BD00210020214A07
:20368000702313705FF0E0421278D2B21100080070472DE9F041ADF5006D04000D00160048
:2036A00064275FF040083800471E002813D000A92000FFF73BFF80465FFA88F8B8F1400FB0
:2036C000F1D100A92800FFF702FF80465FFA88F8B8F1400FE7D15FFA88F840460DF5006D43
:2036E000BDE8F0810B48006808490968084A1140064A116070470000000C0240001002407C
:20370000180C02400000017000000270600000A0BFFF0F00740000A080B54FF48052FF2115
:203720001748FEF79EF94FF48062FF211548FEF798F94FF48062FF211348FEF792F94FF413
:203740000072FF211148FEF78CF94FF48072FF210F48FEF786F90F484FF6FF7101800E4801
:203760005FF0FF3101600D48002101600C48002101600C48002101600B480021016001BD53
:20378000FC000020A83A0020A83E0020A8420020A8480020444D0020F84C0020F44C002076
:2037A000FC4C0020004D0020F04C0020F0B4002100220023022400250226DFF888713F68E4
:2037C00017F00C0739000F00002F04D0042F06D0082F08D03CE0DFF8747107603BE0DFF83B
:2037E0007071076037E0DFF860713F68C7F380573D00DFF854713F6817F03F073E00002D52
:203800000DD0DFF84C71B7FBF6F7DFF83CC1DCF800C0CCF3881C0CFB07F73B000CE0DFF8CA
:203820002C71B7FBF6F7DFF820C1DCF800C0CCF3881C0CFB07F73B00DFF80C713F68C7F3A8
:2038400001477F1C7F003C00B3FBF4F7076002E0DFF8F8700760DFF8EC703F6817F0F0076A
:2038600039000909DFF8EC70CF5D3A000768D7404760DFF8D0703F6817F4E0573900890A6B
:20388000DFF8D070CF5D3A004768D74087602D4F3F6817F460473900490BDFF8B870CF5D71
:2038A0003A004768D740C760F0BC7047C9B2002905D0294A12680243274B1A6004E0264A93
:2038C00012688243244B1A607047C9B2002905D0224A12680243214B1A6004E01F4A1268B8
:2038E00082431E4B1A607047C9B2002905D01C4A126802431A4B1A6004E0194A1268824366
:20390000174B1A607047C9B2002905D0154A12680243144B1A6004E0124A12688243114BC9
:203920001A607047C9B2002905D00F4A126802430D4B1A6004E00C4A126882430A4B1A60AB
:203940007047000008380240043802400024F40040787D01A8000020303802403438024042
:20396000383802404038024044380240F0B400220023002400252A00102A4AD20125954070
:203980002B000D681D402C009C4240D1056803261700FFB27F00BE40B543056005680E79E3
:2039A0001700FFB27F00BE40354305600D79012D02D00D79022D1AD1856803261700FFB2E1
:2039C0007F00BE40B543856085684E791700FFB27F00BE4035438560456801269640B54395
:2039E000456045688E799640B6B235434560C56803261700FFB27F00BE40B543C560C5682E
:203A0000CE791700FFB27F00BE403543C560521CB2E7F0BC70474FF6FF710160002101716A
:203A200000214171002181710021C17170470183704741837047F0B400230024D2B211F070
:203A40000705EDB2AD0012FA05F52B0089B2CD1010EB850589B2CE1010EB8606366A0F27CA
:203A600011F0070C5FFA8CFC5FEA8C0C17FA0CF7BE432E6289B2CD1010EB85052D6A1D4337
:203A80002C0089B2CD1010EB85052C62F0BC704730B4002100220023446885682C43C568ED
:203AA0002C4305692C43456954EA4524856954EA453454F008042100C4692468C5696D6893
:203AC00054EA0524C569AD6854EA0544C569ED6854EA05642200046A2468056A6D6854EAED
:203AE0000524056AAD6854EA0544056AED6854EA056423000468102C09D1DFF8C04021602A
:203B0000DFF8BC402260DFF8BC40236008E0DFF8B8402160DFF8B4402260DFF8B440236027
:203B200030BC7047C9B2002913D0102808D1DFF88C20126852F00402DFF880301A6018E00C
:203B4000DFF88420126852F00402DFF87C301A600FE0102807D1194A1268DFF878301A4076
:203B6000164B1A6005E0184A12681A4B1A40164B1A607047C9B200290FD0102806D10F4A6D
:203B8000126852F040020D4B1A6015E00E4A126852F040020C4B1A600EE0102806D1074AEB
:203BA00012680D4B1A40054B1A6005E0064A1268094B1A40044B1A6070470000600000A032
:203BC000680000A06C0000A0800000A0880000A08C0000A0FBFF0F00BFFF0F000200501E17
:203BE000002A07D0192211000A00511E92B2002AFAD1F3E7704710B504002000441E0028C2
:203C000004D04FF47A70FFF7E9FFF6E710BD000070B50400002600200500200001F029F875
:203C200000284FD0200001F030F80500002D01D1002048E0C5F3C000C00704D5200000F090
:203C400076F830430600C5F30010C00704D5200000F092FD30430600C5F34010C00704D555
:203C6000200000F082F830430600C5F38060C00704D5200000F006F930430600C5F3406029
:203C8000C00704D5200000F01FF830430600C5F30060C00704D5200000F082F93043060028
:203CA000C5F34070C00704D5200000F04FF830430600C5F34050C00704D5200000F0E6FD51
:203CC00030430600300070BD2DE9F041040000275FF00008200001F0B9F805000020070057
:203CE0002078874220D2A8B20121B94080B2084218D014EB8700D0F8900000680600C6F393
:203D0000C030C00707D53900200000F06FFB50EA0800804606E03900200000F0C7F950EA2C
:203D2000080080467F1CDBE74046BDE8F08138B50400002005002000DB49096809688847B1
:203D400055F00805E0684561012032BD38B50400002005002000D44909688968884755F04A
:203D60000055E0684561012032BDFEB50400E068C06A00900198C0F3C30014EB4010D0F811
:203D8000BC03C01C80080600009880B2B6B280B2864275D20198C0F3C30014EB4010D0F861
:203DA000BC0300286CD0009880B2800007000198C0F3C30014EB4010D0F8BC03BFB2B8423F
:203DC00010D20198C0F3C30014EB4010D0F8BC0307000020050055F02005E0688069A8436A
:203DE000E16888610198C0F3C30014EB4010D0F8BC03C01C800806003B009BB20198C0F36E
:203E0000C302D2B20198C0F3C30014EB4010D0F8B813200000F091FD0198C0F3C30014EBBC
:203E20004010BFB20199C1F3C30114EB4111D1F8B8137918C0F8B8130198C0F3C30014EBA8
:203E400040100199C1F3C30114EB4111D1F8BC13BFB2C91BC0F8BC130198C0F3C30014EB2D
:203E600040100199C1F3C30114EB4111D1F8C01311FA87F1C0F8C013E068C06A009083E779
:203E80000120FEBDF0B583B004006069006900900198C0F3C30014EB4010D0F8BC03C01CE7
:203EA00080080600009880B2B6B280B2864275D20198C0F3C30014EB4010D0F8BC030028F4
:203EC0006CD0009880B2800007000198C0F3C30014EB4010D0F8BC03BFB2B84210D201988A
:203EE000C0F3C30014EB4010D0F8BC0307000020050055F08065E0688069A843E1688861D2
:203F00000198C0F3C30014EB4010D0F8BC03C01C800806003B009BB20198C0F3C302D2B235
:203F20000198C0F3C30014EB4010D0F8B813200000F003FD0198C0F3C30014EB4010BFB2B1
:203F40000199C1F3C30114EB4111D1F8B8137918C0F8B8130198C0F3C30014EB401001995E
:203F6000C1F3C30114EB4111D1F8BC13BFB2C91BC0F8BC130198C0F3C30014EB401001990C
:203F8000C1F3C30114EB4111D1F8C01311FA87F1C0F8C01360690069009083E70120FEBDA6
:203FA0002DE9F84304005FF000085FF00009002007000020050000200600D4F8CC0000688B
:203FC0000500D4F8CC000068060036F0040636F0020636F0080636F02006C5F34000C00739
:203FE00008D556F0020620002F4909684968884759F00109C5F3C000C00741D556F0080611
:20400000C5F38000C0073BD520002749096849688847C5F34140C0B2022804D0C5F341402E
:20402000C0B201282AD1606900680700C5F34140C0B2022812D1606941F27071416017F075
:204040000300C0B202281BD0207A022803D10221200000F0E4FE0120804611E060694BF647
:204060008031416017F00300C0B2012808D00121200000F0D4FE0120804601E001208046BE
:20408000C5F34010C00703D556F0200659F00109B8F1000F02D0200000F0DBFED4F8CC00AF
:2040A00006604846BDE8F283F40000202DE9F84304000D0014EB8500D0F890000700B86879
:2040C0008146F868060016EA090914EB8500D0F8900000688046C9F38000C00712D500218C
:2040E000080050F00400B86014EB8501D1F89010C968080050F0020014EB8501D1F8901005
:20410000C86070E1C9F34010C00705D50021080050F02000B86066E1C9F34020C00718D5C1
:2041200014EB8501D1F89010C968080050F0020014EB8501D1F89010C8602900C9B220003C
:2041400001F094F8002108004FF400710843B86049E119F00100C0B2002820D014EB850060
:204160000021C0F8141314EB8501D1F89010C968080050F0020014EB8501D1F89010C860C0
:204180002900C9B2200001F071F80021080050F00100B8602819012180F88C1323E1C9F345
:2041A000C000C0071BD50021080050F00800B86014EB8501D1F89010C968080050F0020096
:2041C00014EB8501D1F89010C8602900C9B2200001F04CF82819052180F88C1303E1C9F3B2
:2041E0000010C00720D514EB85000021C0F8141314EB8501D1F89010C968080050F0020006
:2042000014EB8501D1F89010C8602900C9B2200001F02CF80021080050F01000B8602819DD
:20422000032180F88C13DEE0C9F3C010C00724D514EB8501D1F89010C968080050F00200D0
:2042400014EB8501D1F89010C8602900C9B2200001F00CF814EB8500D0F81403401C14EBD1
:204260008501C1F814032819062180F88C130021080050F08000B860B5E0C9F38010C007C0
:2042800020D514EB85000021C0F8141314EB8501D1F89010C968080050F0020014EB8501B7
:2042A000D1F89010C8602900C9B2200000F0DEFF0021080050F04000B8602819042180F83D
:2042C0008C1390E0C9F38020C00720D514EB8501D1F89010C968080050F0020014EB8501C9
:2042E000D1F89010C8602900C9B2200000F0BEFF0021080050F01000B8602819082180F849
:204300008C130021080050F48060B8606BE0C9F34000C00767D514EB8501D1F89010C96830
:20432000080030F0020014EB8501D1F89010C860281990F88C03012813D12819012180F8FD
:204340009B13C8F38140C0B2022847D114EB451090F8C50390F0010014EB451181F8C503C4
:204360003CE0281990F88C03032804D12819022180F89B1332E0281990F88C0304280FD1C9
:2043800014EB451090F8B003012804D12900C9B2200000F0A9FF2819022180F89B131DE0AD
:2043A000281990F88C03052804D12819042180F89B1313E0281990F88C0306280ED114EBC0
:2043C0008500D0F81403032808D12819032180F89B1314EB85000021C0F81413002108003D
:2043E00050F00200B8600120BDE8F2832DE9F04704000D0014EB8500D0F890008146D9F856
:2044000008008246D9F80C00060016EA0A0A14EB8500D0F890000068070000200600CAF3A7
:204420008000C00713D50021080050F00400C9F8080014EB8501D1F89010C968080050F0B0
:20444000020014EB8501D1F89010C86059E0CAF34010C00706D50021080050F02000C9F812
:2044600008004EE0CAF3C000C00724D514EB8501D1F89010C968080050F0020014EB8501DB
:20448000D1F89010C8602819052180F88C130021080050F01000C9F808000021080050F062
:2044A0000800C9F808003AF0100A2900C9B2200000F0DCFE25E0CAF38020C00721D514EB3B
:2044C0008501D1F89010C968080050F0020014EB8501D1F89010C8602900C9B2200000F0A8
:2044E000C5FE0021080050F01000C9F808002819082180F88C130021080050F48060C9F828
:204500000800CAF34020C00719D514EB8501D1F89010C968080050F0020014EB8501D1F80A
:204520009010C8602900C9B2200000F09FFE002108004FF400710843C9F8080019E11AF06D
:204540000100C0B2002862D0E078012811D114EB8500D0F890000069804614EB4510D0F804
:20456000BC035FEA4831490B401A14EB8501C1F850032819012180F88C1314EB850000215C
:20458000C0F814130021080050F00100C9F80800C7F38140C0B2002804D0C7F38140C0B233
:2045A000022822D114EB8501D1F89010C968080050F0020014EB8501D1F89010C860290036
:2045C000C9B2200000F052FE0021080050F01000C9F8080014EB451090F8C40390F001009A
:2045E00014EB451181F8C403C3E0C7F38140C0B2032840F0BE8057F0005714EB8500D0F813
:20460000900007602819012180F89B13B1E0CAF34000C0074AD514EB8501D1F89010C96887
:20462000080030F0020014EB8501D1F89010C860281990F88C03012804D12819012180F809
:204640009B132CE0281990F88C03052804D12819042180F89B1322E0281990F88C03062832
:2046600004D0281990F88C03082809D114EB85000021C0F814132819032180F89B130EE007
:20468000C7F38140C0B2032809D114EB451090F8C40390F0010014EB451181F8C40300214E
:2046A000080050F00200C9F8080062E0CAF3C010C00725D514EB8501D1F89010C968080030
:2046C00050F0020014EB8501D1F89010C86014EB8500D0F81403401C14EB8501C1F814036E
:2046E0002819062180F88C132900C9B2200000F0BDFD0021080050F08000C9F8080038E003
:20470000CAF30010C00734D5C7F38140C0B2032812D114EB8501D1F89010C968080050F09A
:20472000020014EB8501D1F89010C8602900C9B2200000F09BFD12E0C7F38140C0B200280E
:2047400004D0C7F38140C0B2022808D157F0004737F0804714EB8500D0F890000760281995
:20476000032180F88C130021080050F01000C9F808000120BDE8F0872DE9F843040000200A
:204780008DF800000020060056F01006E0688069B043E1688861E068006A050015F00F00F1
:2047A0008DF800009DF8000014EB8000D0F8900000688046C5F3434002285DD1C5F30A1075
:2047C00080B2012857D39DF8000014EB4010D0F8B80300284FD0C5F30A1292B29DF80000F9
:2047E00014EB4010D0F8B813200000F0CAF815F00F0014EB4010C5F30A1115F00F0214EBBA
:204800004212D2F8B8238918C0F8B81315F00F0014EB401015F00F0114EB4111D1F8C01316
:20482000C5F30A125118C0F8C0139DF8000014EB4010D0F8C00381469DF8000014EB800066
:20484000C0F850939DF8000014EB8000D0F8900000690700C7F3C94080B201280BD358F09D
:20486000004838F080489DF8000014EB8000D0F89000C0F80080FFE756F01006E0688069E9
:204880003043E16888610120BDE8F2830100D1F890000068030053F0004353F08043D1F81E
:2048A000900003600020020052F40012C86842610120704700221100C2685FF0FF3353604F
:2048C000C2687FF08043536151F0004151F40061C2689161704770B582B004000025002627
:2048E00000200090032000F0CDFDE06800690090761CCC48864201D300201DE000980028CB
:20490000F0D500200600009850F001000090E06800990161E06800690090761CC14886425C
:2049200005D2009810F00100C0B20028F2D1032000F0A8FD2800C0B276BDF0B5040000205C
:20494000E578002D1BD1002500269BB213F1030C5FF0040E9CFBFEFC6546D2B214EB820C88
:20496000DCF8D0C067465FF0000C6646AE4206D2D1F800C0C7F800C0761C091DF6E7C0B248
:20498000F0BD70B403000800002192B2D41C042594FBF5F4D3F8D05000263100A14204D24A
:2049A0002E680660491C001DF8E770BC704770B40200002400200025D57001259570402553
:2049C0009580C9B201290ED15FF0A0452C000125D57208251570042555704FF4A075D58024
:2049E000022515720DE0C9B200290AD18E4D2C000025D5720C251570062555704FF4A0653C
:204A0000D580D46014F50065156100252B005578AB420FD212EB830514EB431616F51066E0
:204A2000AE6112EB830514EB431616F530666E655B1CECE714F58065556114F58865C2F878
:204A4000CC5000252B001578AB4209D212EB830514EB431616F5A066C5F890605B1CF2E7AA
:204A600000252B001578AB420BD212EB83054FF4805606FB034616F58056C5F8D0605B1C62
:204A8000F0E714F56065C2F80C51C0B270BC70472DE9F04104000025002006000020070048
:204AA00000208046207A012829D1E068806B070037F48037607A002801D057F48017E0683A
:204AC000876300200600E068C068060036F0400636F4800636F4003636F40026E068C66016
:204AE0002000FFF7F8FEE078012826D1052060F3440858F02008E068C0F808801DE0E06831
:204B0000C068060056F04006E068C6602000FFF7E2FE0020070057F4803757F4802757F411
:204B2000002757F40017607A002801D057F48017E0688763142000F0B6FCE07801280AD1D3
:204B4000E06880688046052060F3440858F02008E068C0F808802800C0B2BDE8F08110B42F
:204B60000100002000231A0052F00102CB689B681343CC68A360C0B210BC704710B4010015
:204B8000002000231A0052F00102CB689B689343CC68A360C0B210BC7047F8B504000D007D
:204BA0000026002700200090009850F020000090009865F38A100090E06800990161E068CB
:204BC000006900907F1C1748874204D20098C0F34010C007F3D4032000F054FC3000C0B215
:204BE000F2BD70B582B004000025002600200090009850F010000090E06800990161E068AD
:204C000000690090761C0748864204D20098C0F30010C007F3D4032000F034FC2800C0B256
:204C200076BD0000410D030000000440F8B504000D000026E068C068070037F0005737F0AC
:204C40008047EDB2012D02D157F0005704E0EDB2002D01D157F08047E068C760322000F00E
:204C600022FC3000C0B2F2BDC068406910F00100704710B504002000FFF7F6FF012801D16D
:204C8000012000E00020C0B210BD01000020CA6852691000CA689269104070472DE9F84311
:204CA000040000255FF00009002006000020070000208046200000F0BFFBD4F80C0100217C
:204CC0000160207A012804D10021200000F0A7F803E00121200000F0A2F8200000F0B9F89B
:204CE00060690068804638F004086069C0F80080E07A012813D1E06880214162802060F3A2
:204D00000F06602060F31F46E0688662E02060F30F07602060F31F47E068C0F800711021D2
:204D20002000FFF73AFF2000FFF75BFF00208146207881450FD214EB8900D0F890005FF05F
:204D4000FF31816014EB8900D0F890000021C16019F10109ECE70121200000F00FF82000E0
:204D600000F036F82800C0B2BDE8F2834069806810F0010090F00100C0B2704770B50400FC
:204D80000D00002006002900C9B2200000F042FB200000F04DF80600C6F30030C00707D409
:204DA000EDB2012D04D156F48056D4F8CC000660C6F30030C00707D5EDB2002D04D136F4DC
:204DC0008056D4F8CC000660C82000F06CFB70BD70B50400002500200600E06800218161D4
:204DE000E0685FF0FF3141612000FFF763FDE078002801D156F0100656F0807656F000762E
:204E000056F0005656F0080656F40016E0688069B0433043E16888612800C0B270BD436906
:204E20001B681A00C9B261F3010243691A6070470100D1F8CC201268100030F0040030F0A2
:204E4000020030F0080030F02000704740694069704738B504002000FFF7EAFF05004FF4F0
:204E600080700543D4F8CC0005600A2000F01BFB35F48075D4F8CC000560142000F013FB80
:204E8000012032BDF0B50200002000235FF0000C65465FF0000C64465FF0000C66465FF0B7
:204EA000FF3C6746C9B212EB810CDCF890C0CCF808705FF0000C644692F803C0BCF1010F96
:204EC00001D154F00404C9B212EB411C9CF8B1C3BCF1000F07D0BCF1020F04D042D3BCF1F0
:204EE000030F24D054E054F0010454F0080454F0800454F4806454F01004C9B212EB411CBE
:204F00009CF8AEC3BCF1000F04D04FF4807C5CEA04040BE054F04004C9B212EB411C9CF893
:204F2000B0C3BCF1000F01D054F0200430E054F0010454F0100454F0080454F0800454F4F8
:204F400080644FF4007C5CEA0404C9B212EB411C9CF8AEC3BCF1000F03D04FF4807C5CEA72
:204F6000040415E054F001044FF4007C5CEA040454F02004C9B212EB411C9CF8AEC3BCF1EF
:204F8000000F05D054F080044FF4807C5CEA0404C9B212EB810CDCF890C0CCF80C405FF050
:204FA000010C1CFA01FC6346D2F814C0DCF818C053EA0C0CD2F814E0CEF818C055F0007573
:204FC000D2F80CC0DCF818C055EA0C0CD2F80CE0CEF818C05FF0000C6646C9B212EB411C08
:204FE0009CF8ACC36CF39C56C9B212EB411C9CF8ADC36CF3CE26C9B212EB411C9CF8AEC357
:205000006CF3CF36C9B212EB411C9CF8AFC3BCF1020F02D15FF0010C01E05FF0000C5FFACF
:205020008CFC6CF35146C9B212EB411C9CF8B1C36CF39346C9B212EB411CBCF8B2C36CF380
:205040000A06C9B212EB411C9CF8B1C3BCF1030F01D156F00056C9B212EB810CDCF890C00D
:20506000CCF80060C0B2F0BD2DE9F04F87B004000D00002600274FF48070ADF8000000200B
:2050800081460020824600208346EDB214EB4510D0F8BC0300282CD0EDB214EB4510D0F81F
:2050A000BC03EDB214EB4511B1F8B21310FA81F0401EEDB214EB4511B1F8B213B0FBF1F008
:2050C0008046BDF800001FFA88F8404513D2BDF8000080461FFA88F8EDB214EB4510B0F8A3
:2050E000B20300FB08F0EDB214EB4511C1F8BC0301E001208046EDB214EB451090F8AE03A8
:2051000000280DD01FFA88F8EDB214EB4510B0F8B20300FB08F0EDB214EB4511C1F8BC0342
:20512000EDB214EB4510D0F8BC0360F312091FFA88F868F3DC49EDB214EB451090F8B4033C
:2051400060F35E79EDB214EB8500D0F89000C0F81090E07801280AD1EDB214EB8500D0F80B
:205160009000EDB214EB4511D1F8B8134161EDB214EB8500D0F89000006882462000FFF7B4
:20518000F5FDC0B260F35D7A5AF0004A3AF0804AEDB214EB8500D0F89000C0F800A0E078CE
:2051A00000285ED1EDB214EB451090F8AE03002857D1EDB214EB4510D0F8BC03002850D05A
:2051C000EDB214EB451090F8B103002805D0022803D01CD303281AD033E0E068C06A03908A
:2051E000EDB214EB4510D0F8BC03C01C80080700039880B280B2BFB2B84207D25BF0200B11
:20520000E06880695BEA0000E168886119E0606900690190EDB214EB4510D0F8BC03C01CD4
:2052200080080700019880B280B2BFB2B84207D25BF0806BE06880695BEA0000E1688861C0
:20524000FFE7EDB214EB4510D0F8BC339BB22A00D2B2EDB214EB4510D0F8B8132000FFF727
:205260006CFB3000C0B207B0BDE8F08F10B485B0020000200024029400240094C9B212EB45
:205280008104D4F890402468230053F0004353F08043C3F38144E4B2002C04D0C3F3814426
:2052A000E4B2022C0BD1D468E46A0294029CC4F30744E4B2002C0DD15B005B080AE0546989
:2052C00024690094009CC4F30744E4B2002C01D15B005B08C9B212EB8104D4F890402360A1
:2052E000C0B205B010BC704730B40200002000252C0054F00044012565F3DC44C9B212EB0F
:205300008105D5F890502C61C9B212EB8105D5F890502D682B0053F0004333F08043C9B27B
:2053200012EB8105D5F890502B60C0B230BC70471CB5040001210120FEF7B8FA4FF48070AB
:20534000009001208DF8040000208DF8060001208DF8070002208DF8050000A94748FEF7E2
:2053600005FB47484FF4807101804FF4F050009003208DF8050002208DF8040000208DF8D9
:20538000060000208DF8070000A93C48FEF7EEFA0A2209213948FEF74EFB0A220A21374866
:2053A000FEF749FB0A220B213448FEF744FB0A220C213248FEF73FFB01214FF48040FEF790
:2053C000B1FA01218020FEF780FA13BD10B582B0040043208DF8000001208DF80100032074
:2053E0008DF8020001208DF8030000A800F069F813BD80B543208DF8000001208DF80100F0
:2054000001208DF8020000208DF8030000A800F058F801BD38B504000D00EDB2002D05D1F6
:205420004FF400711548FEF702FB04E04FF400711248FEF7FEFA31BD1CB504000121802005
:20544000FEF734FA4FF40070009003208DF8050001208DF8040000208DF8060000208DF83F
:20546000070000A90548FEF781FA4FF400710348FEF7DDFAC82000F016F813BD00000240FC
:205480001A00024081B000210091782101FB00F10722B1FBF2F1009A521C0092914200D34F
:2054A000F9E701B0704710B504004FF47A7000FB04F0FFF7E7FF10BD25490143254A116084
:2054C0007047F0B4002300210F22C478002C21D0204C246814F4E064D4F5E064240A230001
:2054E000D3F104042100D2B21A4144788C4023008478144023431B010478174D635504784F
:205500006411164D0126077817F01F07BE4045F8246009E004786411114D0126077817F03C
:205520001F07BE4045F82460F0BC7047042806D10C49096851F004010A4A116005E0094918
:20554000096831F00401074A11607047000000000000FA050CED00E000E400E000E100E0DE
:2055600080E100E010E000E0DFF8F4080068C00707D4DFF8F0080068401CDFF8E81808606B
:2055800006E0DFF8E0080068401EDFF8D8180860DFF8D0080068652808DBDFF8CC0801211D
:2055A0000170DFF8C008642101600EE0DFF8B408006810F1640F08DADFF8AC080021017099
:2055C000DFF8A0087FF06301016070472DE9F04184B004000D001600DFF8900800680028C0
:2055E00013D0DFF888080068002806D0DFF87C080068FCF717F9FCF709FADFF870080021CF
:205600000160DFF86C080021016004220021DFF86408FCF726FA002D05D00322DFF8541855
:205620002800FCF70FFA032001900096DFF8483808222100DFF844084068FBF7DCFFDFF8EB
:205640002C180860DFF824080068002808D104208046DFF81C08002101600020070015E0AF
:20566000DFF81C080090DFF8103808222100DFF80C084068FBF75AFE0700DFF8F407076018
:2056800000208046DFF8FC070121017000A800F011FC0197CDF808800C2100A800F08BFCE1
:2056A000BDE8FF81F0B585B004000D001600DFF8C007006884421CD1DFF8B0070068FCF722
:2056C0009AF9002812D13100DFF8A0070068FCF71EF9002807D0DFF894070068FCF762F9E4
:2056E0000020070007E00320070004E00220070001E00120070000A800F0A0FC01940295FC
:205700000397102100A800F056FC05B0F0BD3EB50400DFF85C07006884422CD1DFF84C07EC
:205720000068002820D000220021DFF840070068FCF701F9DFF834070068002806D0DFF8E4
:205740002C070068FCF76EF8FCF760F9DFF81C0700210160DFF81C27DFF814070168DFF841
:205760001C074068FCF730F8DFF80407002101600020050001E00120050000A800F06FFCB0
:20578000019402950C2100A800F015FC37BD0200012070473EB504000025A1686068FFF756
:2057A000F6FF002802D00120050001E00020050000A800F063FCDFF8D006007B8DF8080022
:2057C000EDB2002D02D00020019001E001200190019800280AD1E068002802D0032803D00B
:2057E00004E00220050001E003200500092100A800F0E1FB2800C0B23EBDF0B5ADF5037D9B
:2058000004000025270000A800F043FCD7F8060006004FF4007203A917F10A00FCF712F915
:20582000DFF868060268D2B2DFF8641603A800F0C8FCB88800281BD1002E06D1DFF85406FB
:20584000039901605FF0FF30039003A9300000F02BFC4FF40071884206D0232001F086F841
:205860000120ADF8040017E00020ADF8040013E0002E02D15FF0FF30039003A9300000F0CD
:2058800040FC4FF40071884203D00120ADF8040002E00020ADF80400CDF806600A2100A808
:2058A00000F089FB2800C0B20DF5037DF0BD7CB504000025260000A801F072F97068002827
:2058C00002D001280DD02DE0B06800F04AFD002803D00020ADF8040002E00120ADF8040024
:2058E00020E0307B01280DD1DFF89C05007B717B884207D0DFF89005717B0173DFF8980536
:2059000001210170DFF88C050168DFF8900501F0CCF9082803D10020ADF8040002E0012031
:20592000ADF80400062100A800F045FB2800C0B276BD2DE9F04182B00024002500260027E3
:20594000002000905FF00008EDB2FF2D00F0C480FFF70AFEDFF810050078002808D001F0EE
:205960008AFB00A800F018FB80460020070007E03800471C40F6B931884201D3FF200500A6
:205980000120FEF738F9EDB2280000280AD001281CD0022845D0032800F08380FF2800F06E
:2059A000878090E0DFF8C0040078002804D0012005000020060000E0761C40F6B9308642BC
:2059C00003D300200600FF2005007CE0B8F1000F18D000988078A52814D10098FFF7DAFE03
:2059E000002807D0022808D00DD2002006000220050008E00020060005E000200600FF2042
:205A0000050000E0761C40F6B930864208D300200600DFF854040078002801D1FF20050062
:205A200051E0B8F1000F4ED000988078512812D052281AD0532822D0602804D0612806D0E8
:205A4000A52821D02CE00098FFF731FF28E00098FFF7D3FE24E000980269009810F10C01AA
:205A60000098001DFFF7B2FD1AE0009810F10C020098816800984068FFF714FE10E00098DA
:205A80004068FFF744FE0BE00098FFF783FE022804D0032804D10320050001E0FF20050001
:205AA00011E0DFF8FC0301210170FF2005000AE0DFF8F0034FF400710180DFF8E8034FF47A
:205AC0008071018008E0DFF8A003007800283FF43BAF00F04AFA37E7BDE8F381F8B50020FD
:205AE00000900024002500260027EDB2FF2D43D0FFF73AFD0220FEF77EF8DB480078002825
:205B000008D001F0B8FA00A800F046FA0400002007000AE03800471CB0F57A7F02D9FF20EA
:205B2000050002E00120FEF766F8002C0FD000988078A5280BD10098FFF72CFE0098C0684E
:205B4000002802D0042802D101E0FE200500C6480078002801D000F008FAEDB2FE2DC4D178
:205B60003000461C80B2652802D3FF200500BCE70120FEF740F8B8E7F1BD30B583B0040081
:205B800007250720ADF80000A5208DF802008DF80440052100A801F053FBADF80500072119
:205BA00000A801F041FCC04A0521C04801F054FC3EBD3EB504000A250A20ADF80000B120D5
:205BC0008DF80200ADF804400020ADF80600082100A801F035FBADF808000A2100A801F027
:205BE00023FCB14A0521B14801F036FC3EBD70B5A4B004000D008A268A20ADF80000B220F3
:205C00008DF802000020ADF804000020ADF80600802202A92000FBF715FF882100A801F0B4
:205C20000FFBADF888008A2100A801F0FDFB7FF07F4205219D4801F00FFC24B070BD10B5F4
:205C400084B00A240A20ADF80000B3208DF802000020ADF804000020ADF80600082100A854
:205C600001F0EEFAADF808000A2100A801F0DCFB1FBD10B584B00A240A20ADF80000B4205D
:205C80008DF802000020ADF804000020ADF80600082100A801F0D4FAADF808000A2100A8D9
:205CA00001F0C2FB1FBD2DE9F04FADF5097D0024002500200090002600275FF0000A5FF0EF
:205CC000000801AB64A2032164A000F00DFC8046B8F1000F0BD09DF80400002807D00120D7
:205CE00004000822724901A8FBF7ACFE01E000200400002082463220FDF77DFF2000C0B235
:205D0000FFF73BFF002808D068488078E4B2A04203D1E4B2002C0AD107E0504610F1010A39
:205D200080B20B28E7D3012079E0002077E04AA308225F4951484068FBF729FC8146B9F1CB
:205D4000000F01D102206AE04846FBF75DFE009000208246009880B2FFF72BFF002807D1B9
:205D6000504610F1010A80B2652801D3012056E000224FF400714846FBF7DDFD4846FBF7E7
:205D80003AFE002838D109A94846FBF77BFD0600B6B2002E0ED1FFF76CFF434A01214348DA
:205DA00001F05AFB0500ADB2002D01D1012036E0032034E05FF0000BBBF1040F17DA0020A2
:205DC0008246390089B2802009AA00FB0B20FFF70EFF002807D1504610F1010A80B26528AA
:205DE00001D301201BE07F1C1BF1010BE4E74846FBF7D8FD0028C1D1002200214846FBF763
:205E00009AFDFFF71CFF284A0121284801F024FB0500ADB2002D01D1012000E000200DF540
:205E2000097DBDE8F08F38B5040000252800451C03280ED23220FDF7DEFE2000C0B2FFF764
:205E40009CFE0028F2D0194880780128EED1002000E0012032BD000043464D0042465300BC
:205E600010080240084D0020544D00200C4D0020104D0020144D0020B8A50008984C0020B2
:205E8000084C0020554D0020E84B0020F000002088000020E4000020524D002000C0000836
:205EA000564D0020180C0240FFFF0F00A8490020B04C002010B50400200001F00DFB0C2071
:205EC00020805120A070002060600020A060200010BD000080B5544801F005FB01BD10B470
:205EE00003001888C0185418241FA04201D3002002E01888C318012010BC70472DE9F0415A
:205F000004000D00260014F10807B8463088A84229D14648012101703079002804D00328AB
:205F200009D0042815D01BE0B8F8002040493800FBF788FD17E0B8F800203D493800FBF7FD
:205F400081FD2A0021003800FFF7C9FF0028F2D109E0B8F8002036493800FBF773FD02E0E3
:205F6000324800210170BDE8F08110B5314C002C0CD02088012809D32188200001F05FF8F7
:205F80004FF4806200212B48FBF76BFD10BD80B5294801F06DF801BD0100254A2348007814
:205FA000002806D00A602148002303700868008800E000207047F0B5ADF2044D04000D0025
:205FC000002D02D02088A84201D0002027E015F10C073800ADF8000013484088ADF8020078
:205FE000114800798DF8040001208DF805003A0092B202A92000FBF725FD3800811E89B22C
:2060000000A801F01DF9060000A8381820F8026C3A0092B2074900A8FBF714FD01200DF2B4
:20602000044DF0BD00000000A04C0020504D0020A8320020A8360020FD5E000810B5040075
:20604000200001F049FA102020805220A070002060600020A0600020E060200010BD10B588
:206060000400200001F038FA0C2020805320A070002060600020A060200010BD10B50400D4
:20608000200001F029FA09202080A520A070200010BD10B50400200001F01EFA0A20208085
:2060A0006120A070200010BDF8B504000D002F0004F1006010F54040DFF890160860002096
:2060C00006004FF40070864218DA3968DFF87C06006800F0EAFDDFF8740600680068396852
:2060E000884201D030000BE0DFF860060068001DDFF8581608603F1D361DE2E74FF4007050
:20610000F2BD70B402004FF400730C0002F1006010F54040DFF834663060002005009D420B
:2061200013DADFF82806006800682668B04202D0280080B20BE0DFF814060068001DDFF8B9
:206140000C663060241D2D1DE9E74FF4007070BC7047F8B5DFF8F865DFF8F875082000F00F
:20616000CEFD00F029FD6420FDF745FD0221582000F03BFD0500EDB2082D01D0012012E004
:2061800000200400202C0DDA3168380000F08DFD38683168884201D0022004E03F1D361DD4
:2061A000241DEFE70020F2BD884080B2020A1043C0B270470002C84080B2020A1043C0B26A
:2061C00070472DE9F04F83B004000D001600002D02D0F6B2002E00D144E04FF480700190CB
:2061E0000020814601200700019887423AD24FF40070C01B80465FFA89F919F80500824615
:206200001AF0070083465946C9B2385D80B2FFF7D1FF38555946C9B218F8040080B2FFF71A
:20622000C3FF08F80400385D9AEA0000385518F804009AEA000008F80400385D8DF800003C
:2062400018F8040038559DF8000008F8040019F101095FFA89F9F6B2B14501D300208146BC
:206260007F1CC1E7BDE8F78F01000020DFF8E824914205D2B1F1006F02D3002210006FE09B
:20628000DFF8D824914206D2DFF8CC24914202D30822100064E0DFF8C824914206D2DFF84E
:2062A000BC24914202D31022100059E0DFF8B424914206D2DFF8A824914202D318221000EC
:2062C0004EE0DFF8A424914206D2DFF89824914202D32022100043E0DFF89024914206D260
:2062E000DFF88424914202D32822100038E0DFF88024914206D2DFF87424914202D3302276
:2063000010002DE0DFF86C24914206D2DFF86024914202D33822100022E0DFF85C249142B5
:2063200006D2DFF85024914202D34022100017E0DFF84824914206D2DFF83C24914202D35C
:20634000482210000CE0DFF83824914206D2DFF82C24914202D35022100001E0582210003D
:206360007047F8B5040000F027FCF32000F0C7FC18255026002C06D004F1006010F540404D
:20638000FFF772FF06002F00BE4217D30221380000F02BFC08280FD0DFF8E8034FF4806110
:2063A00001804FF49660FDF726FCDFF8DC034FF480610180002002E00837E5E70120F2BDD5
:2063C00070B5ADF5007D040000AA00212000FBF77DFA4FF40071884201D000201DE09DF820
:2063E0001B0006009DF818000500DFF86403007BF6B2864201D000200FE0F6B2EDB2AE428A
:2064000007D0DFF8880301210170DFF8840301210170DFF83C03057301200DF5007D70BD64
:2064200070B5ADF5007D04000020060000AA00212000FBF74BFA761C2000FBF7B3FA0A98D9
:206440000500DFF85003002101604FF4007000FB06F0A8422CDA00A92000FBF713FA002807
:2064600001D1002032E0CC480268D2B2CB4900A8FFF7A7FEC7480068002802D15FF0FF30CF
:20648000009000A9C3480068FFF73BFE4FF40071884201D0002019E0BE48006800F2002039
:2064A000BC490860761C2000FBF77CFA0028CCD1BB480168AA4800F0F8FB082801D000202E
:2064C00004E0B1484FF48071018001200DF5007D70BD80B5AD480078002803D0FFF739FE93
:2064E000012000E0002002BD2DE9F04104000D0016001F003900AB484068FAF7C8FE8046DE
:20650000B8F1000F18D0EDB22A0092B221003800FBF7B4FA002807D00322310017F1080070
:20652000FBF7ACFA002807D13A0041469D484068FAF7BBFE8046E3E74046BDE8F08100009F
:2065400001B480F30888704701B070471CB5FEF750FF00F004FA824800680090009892492C
:206560000840B0F1005F09D1904800680190019804007B480068FFF7E3FFA04713BD10B50C
:20658000ADF5007D040071487549016000AA00212000FBF79BF92000FBF704FA7D48002199
:2065A00001602000FBF727FA00282AD100A92000FBF768F978480268D2B2784900A8FFF7FB
:2065C00000FE74480068002805D17548009901605FF0FF30009000A96E480068FFF764FDB8
:2065E0004FF40071884201D000200FE06948006800F20020674908602000FBF7D3F90028F4
:20660000CFD161484FF48071018001200DF5007D10BD10B504002000FFF7D2FE002801D166
:2066200000201DE02000FBF7EFF9FFF79AFE002801D1002014E02000FFF7A1FF002801D1F7
:2066400000200DE0FFF785FD002803D0022804D001D304E003E0002002E0002000E00120FE
:2066600010BD4D4800684D4940183949097B00F8011C704730B589B000AB4D4A03214D4877
:20668000FFF732FF0400002C06D100AB484A04214948FFF729FF0400002C0DD139484FF4E9
:2066A000806101804FF47A70FDF7A5FA36484FF480610180022047E000253D4B082200A9CC
:2066C00038484068FAF763FF0500002D01D100203AE02800FBF798F9384988420AD3002D01
:2066E00004D02800FBF79EF8FBF790F900200500002029E02800FFF78CFF00280AD1002D74
:2067000004D02800FBF78EF8FBF780F900200500002019E02800FFF783FE00280AD1002D8D
:2067200004D02800FBF77EF8FBF770F900200500002009E0002D04D02800FBF773F8FBF7F4
:2067400065F900200500012009B030BDEC000020E84B0020E0FF0F080040000800800008CA
:2067600000C00008000001080000020800000408000006080000080800000A0800000C08EE
:2067800000000E081A0C0240180C0240524D0020534D0020044D0020F0000020880000206D
:2067A000E4000020984C00200000FE2F04C00008B4A50008B0A50008A0A50008003E0F0080
:2067C000DFF890030068C0F30220704740B2002809D540B210F00F02DFF87C33D2180B01E4
:2067E00002F8043C04E040B2DFF870230B018354704770B4030013F00704D4F10706052E4B
:2068000001D3042001E0D4F10700261D072E01D2002500E0E51E012616FA00F0401E0840B3
:20682000A8400121A940491E1140084370BC704710B50400B4F1807F01D3012013E0200208
:20684000000A401EDFF8181308600F215FF0FF30FFF7BCFFDFF80C0300210160DFF80803BD
:2068600007210160002010BD00B583B001211C20FDF71CF801208DF8040001208DF80600FE
:2068800001208DF8070002208DF805000420009000A9DFF8D802FDF769F80820009000A9DB
:2068A000B248FDF763F8B2485FF0FF31016000208DF8050001208DF8040000208DF80700B5
:2068C00001208DF806004FF44070009000A9A948FDF74CF800208DF8050001208DF8040063
:2068E00000208DF8070001208DF806004FF48060009000A99F48FDF739F801208DF805002D
:2069000000208DF8040000208DF807000120009000A99948FDF72AF807BD80B54FF4A06095
